{
	"contracts/Funding (1).sol": {
		"Funding": {
			"abi": [
				{
					"inputs": [
						{
							"internalType": "uint256",
							"name": "_seuil",
							"type": "uint256"
						},
						{
							"internalType": "address",
							"name": "_recipient",
							"type": "address"
						}
					],
					"stateMutability": "nonpayable",
					"type": "constructor"
				},
				{
					"stateMutability": "payable",
					"type": "fallback"
				},
				{
					"inputs": [
						{
							"internalType": "address",
							"name": "_owner",
							"type": "address"
						}
					],
					"name": "changeOwner",
					"outputs": [],
					"stateMutability": "nonpayable",
					"type": "function"
				},
				{
					"inputs": [],
					"name": "donate",
					"outputs": [],
					"stateMutability": "payable",
					"type": "function"
				},
				{
					"inputs": [
						{
							"internalType": "uint256",
							"name": "",
							"type": "uint256"
						}
					],
					"name": "donaters",
					"outputs": [
						{
							"internalType": "address",
							"name": "",
							"type": "address"
						}
					],
					"stateMutability": "view",
					"type": "function"
				},
				{
					"inputs": [
						{
							"internalType": "address",
							"name": "",
							"type": "address"
						}
					],
					"name": "donations",
					"outputs": [
						{
							"internalType": "uint256",
							"name": "",
							"type": "uint256"
						}
					],
					"stateMutability": "view",
					"type": "function"
				},
				{
					"inputs": [],
					"name": "nbr_donations",
					"outputs": [
						{
							"internalType": "uint256",
							"name": "",
							"type": "uint256"
						}
					],
					"stateMutability": "view",
					"type": "function"
				},
				{
					"inputs": [],
					"name": "owner",
					"outputs": [
						{
							"internalType": "address",
							"name": "",
							"type": "address"
						}
					],
					"stateMutability": "view",
					"type": "function"
				},
				{
					"inputs": [],
					"name": "ratio",
					"outputs": [
						{
							"internalType": "uint8",
							"name": "",
							"type": "uint8"
						}
					],
					"stateMutability": "view",
					"type": "function"
				},
				{
					"inputs": [],
					"name": "receipient",
					"outputs": [
						{
							"internalType": "address",
							"name": "",
							"type": "address"
						}
					],
					"stateMutability": "view",
					"type": "function"
				},
				{
					"inputs": [],
					"name": "redeem",
					"outputs": [],
					"stateMutability": "nonpayable",
					"type": "function"
				},
				{
					"inputs": [],
					"name": "seuil",
					"outputs": [
						{
							"internalType": "uint256",
							"name": "",
							"type": "uint256"
						}
					],
					"stateMutability": "view",
					"type": "function"
				},
				{
					"inputs": [],
					"name": "status",
					"outputs": [
						{
							"internalType": "bool",
							"name": "",
							"type": "bool"
						}
					],
					"stateMutability": "view",
					"type": "function"
				},
				{
					"stateMutability": "payable",
					"type": "receive"
				}
			],
			"devdoc": {
				"custom:dev-run-script": "./scripts/deploy_with_ethers.ts",
				"details": "Store & retrieve value in a variable",
				"kind": "dev",
				"methods": {},
				"title": "Storage",
				"version": 1
			},
			"evm": {
				"assembly": "    /* \"contracts/Funding (1).sol\":199:3061  contract Funding {... */\n  mstore(0x40, 0x80)\n    /* \"contracts/Funding (1).sol\":653:924  constructor(uint256 _seuil, address _recipient) {... */\n  callvalue\n  dup1\n  iszero\n  tag_1\n  jumpi\n  0x00\n  dup1\n  revert\ntag_1:\n  pop\n  mload(0x40)\n  sub(codesize, bytecodeSize)\n  dup1\n  bytecodeSize\n  dup4\n  codecopy\n  dup2\n  dup2\n  add\n  0x40\n  mstore\n  dup2\n  add\n  swap1\n  tag_2\n  swap2\n  swap1\n  tag_3\n  jump\t// in\ntag_2:\n    /* \"contracts/Funding (1).sol\":719:725  _seuil */\n  dup2\n    /* \"contracts/Funding (1).sol\":711:716  seuil */\n  0x00\n    /* \"contracts/Funding (1).sol\":711:725  seuil = _seuil */\n  dup2\n  swap1\n  sstore\n  pop\n    /* \"contracts/Funding (1).sol\":743:753  msg.sender */\n  caller\n    /* \"contracts/Funding (1).sol\":735:740  owner */\n  0x01\n  0x00\n    /* \"contracts/Funding (1).sol\":735:753  owner = msg.sender */\n  0x0100\n  exp\n  dup2\n  sload\n  dup2\n  0xffffffffffffffffffffffffffffffffffffffff\n  mul\n  not\n  and\n  swap1\n  dup4\n  0xffffffffffffffffffffffffffffffffffffffff\n  and\n  mul\n  or\n  swap1\n  sstore\n  pop\n    /* \"contracts/Funding (1).sol\":838:848  _recipient */\n  dup1\n    /* \"contracts/Funding (1).sol\":825:835  receipient */\n  0x04\n  0x00\n    /* \"contracts/Funding (1).sol\":825:848  receipient = _recipient */\n  0x0100\n  exp\n  dup2\n  sload\n  dup2\n  0xffffffffffffffffffffffffffffffffffffffff\n  mul\n  not\n  and\n  swap1\n  dup4\n  0xffffffffffffffffffffffffffffffffffffffff\n  and\n  mul\n  or\n  swap1\n  sstore\n  pop\n    /* \"contracts/Funding (1).sol\":867:871  true */\n  0x01\n    /* \"contracts/Funding (1).sol\":858:864  status */\n  0x04\n  0x14\n    /* \"contracts/Funding (1).sol\":858:871  status = true */\n  0x0100\n  exp\n  dup2\n  sload\n  dup2\n  0xff\n  mul\n  not\n  and\n  swap1\n  dup4\n  iszero\n  iszero\n  mul\n  or\n  swap1\n  sstore\n  pop\n    /* \"contracts/Funding (1).sol\":653:924  constructor(uint256 _seuil, address _recipient) {... */\n  pop\n  pop\n    /* \"contracts/Funding (1).sol\":199:3061  contract Funding {... */\n  jump(tag_6)\n    /* \"#utility.yul\":88:205   */\ntag_8:\n    /* \"#utility.yul\":197:198   */\n  0x00\n    /* \"#utility.yul\":194:195   */\n  dup1\n    /* \"#utility.yul\":187:199   */\n  revert\n    /* \"#utility.yul\":334:411   */\ntag_10:\n    /* \"#utility.yul\":371:378   */\n  0x00\n    /* \"#utility.yul\":400:405   */\n  dup2\n    /* \"#utility.yul\":389:405   */\n  swap1\n  pop\n    /* \"#utility.yul\":334:411   */\n  swap2\n  swap1\n  pop\n  jump\t// out\n    /* \"#utility.yul\":417:539   */\ntag_11:\n    /* \"#utility.yul\":490:514   */\n  tag_23\n    /* \"#utility.yul\":508:513   */\n  dup2\n    /* \"#utility.yul\":490:514   */\n  tag_10\n  jump\t// in\ntag_23:\n    /* \"#utility.yul\":483:488   */\n  dup2\n    /* \"#utility.yul\":480:515   */\n  eq\n    /* \"#utility.yul\":470:533   */\n  tag_24\n  jumpi\n    /* \"#utility.yul\":529:530   */\n  0x00\n    /* \"#utility.yul\":526:527   */\n  dup1\n    /* \"#utility.yul\":519:531   */\n  revert\n    /* \"#utility.yul\":470:533   */\ntag_24:\n    /* \"#utility.yul\":417:539   */\n  pop\n  jump\t// out\n    /* \"#utility.yul\":545:688   */\ntag_12:\n    /* \"#utility.yul\":602:607   */\n  0x00\n    /* \"#utility.yul\":633:639   */\n  dup2\n    /* \"#utility.yul\":627:640   */\n  mload\n    /* \"#utility.yul\":618:640   */\n  swap1\n  pop\n    /* \"#utility.yul\":649:682   */\n  tag_26\n    /* \"#utility.yul\":676:681   */\n  dup2\n    /* \"#utility.yul\":649:682   */\n  tag_11\n  jump\t// in\ntag_26:\n    /* \"#utility.yul\":545:688   */\n  swap3\n  swap2\n  pop\n  pop\n  jump\t// out\n    /* \"#utility.yul\":694:820   */\ntag_13:\n    /* \"#utility.yul\":731:738   */\n  0x00\n    /* \"#utility.yul\":771:813   */\n  0xffffffffffffffffffffffffffffffffffffffff\n    /* \"#utility.yul\":764:769   */\n  dup3\n    /* \"#utility.yul\":760:814   */\n  and\n    /* \"#utility.yul\":749:814   */\n  swap1\n  pop\n    /* \"#utility.yul\":694:820   */\n  swap2\n  swap1\n  pop\n  jump\t// out\n    /* \"#utility.yul\":826:922   */\ntag_14:\n    /* \"#utility.yul\":863:870   */\n  0x00\n    /* \"#utility.yul\":892:916   */\n  tag_29\n    /* \"#utility.yul\":910:915   */\n  dup3\n    /* \"#utility.yul\":892:916   */\n  tag_13\n  jump\t// in\ntag_29:\n    /* \"#utility.yul\":881:916   */\n  swap1\n  pop\n    /* \"#utility.yul\":826:922   */\n  swap2\n  swap1\n  pop\n  jump\t// out\n    /* \"#utility.yul\":928:1050   */\ntag_15:\n    /* \"#utility.yul\":1001:1025   */\n  tag_31\n    /* \"#utility.yul\":1019:1024   */\n  dup2\n    /* \"#utility.yul\":1001:1025   */\n  tag_14\n  jump\t// in\ntag_31:\n    /* \"#utility.yul\":994:999   */\n  dup2\n    /* \"#utility.yul\":991:1026   */\n  eq\n    /* \"#utility.yul\":981:1044   */\n  tag_32\n  jumpi\n    /* \"#utility.yul\":1040:1041   */\n  0x00\n    /* \"#utility.yul\":1037:1038   */\n  dup1\n    /* \"#utility.yul\":1030:1042   */\n  revert\n    /* \"#utility.yul\":981:1044   */\ntag_32:\n    /* \"#utility.yul\":928:1050   */\n  pop\n  jump\t// out\n    /* \"#utility.yul\":1056:1199   */\ntag_16:\n    /* \"#utility.yul\":1113:1118   */\n  0x00\n    /* \"#utility.yul\":1144:1150   */\n  dup2\n    /* \"#utility.yul\":1138:1151   */\n  mload\n    /* \"#utility.yul\":1129:1151   */\n  swap1\n  pop\n    /* \"#utility.yul\":1160:1193   */\n  tag_34\n    /* \"#utility.yul\":1187:1192   */\n  dup2\n    /* \"#utility.yul\":1160:1193   */\n  tag_15\n  jump\t// in\ntag_34:\n    /* \"#utility.yul\":1056:1199   */\n  swap3\n  swap2\n  pop\n  pop\n  jump\t// out\n    /* \"#utility.yul\":1205:1712   */\ntag_3:\n    /* \"#utility.yul\":1284:1290   */\n  0x00\n    /* \"#utility.yul\":1292:1298   */\n  dup1\n    /* \"#utility.yul\":1341:1343   */\n  0x40\n    /* \"#utility.yul\":1329:1338   */\n  dup4\n    /* \"#utility.yul\":1320:1327   */\n  dup6\n    /* \"#utility.yul\":1316:1339   */\n  sub\n    /* \"#utility.yul\":1312:1344   */\n  slt\n    /* \"#utility.yul\":1309:1428   */\n  iszero\n  tag_36\n  jumpi\n    /* \"#utility.yul\":1347:1426   */\n  tag_37\n  tag_8\n  jump\t// in\ntag_37:\n    /* \"#utility.yul\":1309:1428   */\ntag_36:\n    /* \"#utility.yul\":1467:1468   */\n  0x00\n    /* \"#utility.yul\":1492:1556   */\n  tag_38\n    /* \"#utility.yul\":1548:1555   */\n  dup6\n    /* \"#utility.yul\":1539:1545   */\n  dup3\n    /* \"#utility.yul\":1528:1537   */\n  dup7\n    /* \"#utility.yul\":1524:1546   */\n  add\n    /* \"#utility.yul\":1492:1556   */\n  tag_12\n  jump\t// in\ntag_38:\n    /* \"#utility.yul\":1482:1556   */\n  swap3\n  pop\n    /* \"#utility.yul\":1438:1566   */\n  pop\n    /* \"#utility.yul\":1605:1607   */\n  0x20\n    /* \"#utility.yul\":1631:1695   */\n  tag_39\n    /* \"#utility.yul\":1687:1694   */\n  dup6\n    /* \"#utility.yul\":1678:1684   */\n  dup3\n    /* \"#utility.yul\":1667:1676   */\n  dup7\n    /* \"#utility.yul\":1663:1685   */\n  add\n    /* \"#utility.yul\":1631:1695   */\n  tag_16\n  jump\t// in\ntag_39:\n    /* \"#utility.yul\":1621:1695   */\n  swap2\n  pop\n    /* \"#utility.yul\":1576:1705   */\n  pop\n    /* \"#utility.yul\":1205:1712   */\n  swap3\n  pop\n  swap3\n  swap1\n  pop\n  jump\t// out\n    /* \"contracts/Funding (1).sol\":199:3061  contract Funding {... */\ntag_6:\n  dataSize(sub_0)\n  dup1\n  dataOffset(sub_0)\n  0x00\n  codecopy\n  0x00\n  return\nstop\n\nsub_0: assembly {\n        /* \"contracts/Funding (1).sol\":199:3061  contract Funding {... */\n      mstore(0x40, 0x80)\n      jumpi(tag_1, lt(calldatasize, 0x04))\n      shr(0xe0, calldataload(0x00))\n      dup1\n      0xbe040fb0\n      gt\n      tag_14\n      jumpi\n      dup1\n      0xbe040fb0\n      eq\n      tag_8\n      jumpi\n      dup1\n      0xcb22c1c5\n      eq\n      tag_9\n      jumpi\n      dup1\n      0xcc6cb19a\n      eq\n      tag_10\n      jumpi\n      dup1\n      0xe9a84942\n      eq\n      tag_11\n      jumpi\n      dup1\n      0xed88c68e\n      eq\n      tag_12\n      jumpi\n      dup1\n      0xff5d80f2\n      eq\n      tag_13\n      jumpi\n      jump(tag_2)\n    tag_14:\n      dup1\n      0x06919aef\n      eq\n      tag_3\n      jumpi\n      dup1\n      0x200d2ed2\n      eq\n      tag_4\n      jumpi\n      dup1\n      0x71ca337d\n      eq\n      tag_5\n      jumpi\n      dup1\n      0x8da5cb5b\n      eq\n      tag_6\n      jumpi\n      dup1\n      0xa6f9dae1\n      eq\n      tag_7\n      jumpi\n      jump(tag_2)\n    tag_1:\n      jumpi(tag_2, calldatasize)\n        /* \"contracts/Funding (1).sol\":2692:2700  donate() */\n      tag_17\n        /* \"contracts/Funding (1).sol\":2692:2698  donate */\n      tag_18\n        /* \"contracts/Funding (1).sol\":2692:2700  donate() */\n      jump\t// in\n    tag_17:\n        /* \"contracts/Funding (1).sol\":199:3061  contract Funding {... */\n      stop\n    tag_2:\n        /* \"contracts/Funding (1).sol\":2751:2759  donate() */\n      tag_21\n        /* \"contracts/Funding (1).sol\":2751:2757  donate */\n      tag_18\n        /* \"contracts/Funding (1).sol\":2751:2759  donate() */\n      jump\t// in\n    tag_21:\n        /* \"contracts/Funding (1).sol\":199:3061  contract Funding {... */\n      stop\n        /* \"contracts/Funding (1).sol\":223:243  uint256 public seuil */\n    tag_3:\n      callvalue\n      dup1\n      iszero\n      tag_22\n      jumpi\n      0x00\n      dup1\n      revert\n    tag_22:\n      pop\n      tag_23\n      tag_24\n      jump\t// in\n    tag_23:\n      mload(0x40)\n      tag_25\n      swap2\n      swap1\n      tag_26\n      jump\t// in\n    tag_25:\n      mload(0x40)\n      dup1\n      swap2\n      sub\n      swap1\n      return\n        /* \"contracts/Funding (1).sol\":588:606  bool public status */\n    tag_4:\n      callvalue\n      dup1\n      iszero\n      tag_27\n      jumpi\n      0x00\n      dup1\n      revert\n    tag_27:\n      pop\n      tag_28\n      tag_29\n      jump\t// in\n    tag_28:\n      mload(0x40)\n      tag_30\n      swap2\n      swap1\n      tag_31\n      jump\t// in\n    tag_30:\n      mload(0x40)\n      dup1\n      swap2\n      sub\n      swap1\n      return\n        /* \"contracts/Funding (1).sol\":275:306  uint8 public constant ratio = 5 */\n    tag_5:\n      callvalue\n      dup1\n      iszero\n      tag_32\n      jumpi\n      0x00\n      dup1\n      revert\n    tag_32:\n      pop\n      tag_33\n      tag_34\n      jump\t// in\n    tag_33:\n      mload(0x40)\n      tag_35\n      swap2\n      swap1\n      tag_36\n      jump\t// in\n    tag_35:\n      mload(0x40)\n      dup1\n      swap2\n      sub\n      swap1\n      return\n        /* \"contracts/Funding (1).sol\":386:406  address public owner */\n    tag_6:\n      callvalue\n      dup1\n      iszero\n      tag_37\n      jumpi\n      0x00\n      dup1\n      revert\n    tag_37:\n      pop\n      tag_38\n      tag_39\n      jump\t// in\n    tag_38:\n      mload(0x40)\n      tag_40\n      swap2\n      swap1\n      tag_41\n      jump\t// in\n    tag_40:\n      mload(0x40)\n      dup1\n      swap2\n      sub\n      swap1\n      return\n        /* \"contracts/Funding (1).sol\":1027:1195  function changeOwner(address _owner) public {... */\n    tag_7:\n      callvalue\n      dup1\n      iszero\n      tag_42\n      jumpi\n      0x00\n      dup1\n      revert\n    tag_42:\n      pop\n      tag_43\n      0x04\n      dup1\n      calldatasize\n      sub\n      dup2\n      add\n      swap1\n      tag_44\n      swap2\n      swap1\n      tag_45\n      jump\t// in\n    tag_44:\n      tag_46\n      jump\t// in\n    tag_43:\n      stop\n        /* \"contracts/Funding (1).sol\":1881:2649  function redeem() public {... */\n    tag_8:\n      callvalue\n      dup1\n      iszero\n      tag_47\n      jumpi\n      0x00\n      dup1\n      revert\n    tag_47:\n      pop\n      tag_48\n      tag_49\n      jump\t// in\n    tag_48:\n      stop\n        /* \"contracts/Funding (1).sol\":930:1022  function nbr_donations() public view returns(uint256){... */\n    tag_9:\n      callvalue\n      dup1\n      iszero\n      tag_50\n      jumpi\n      0x00\n      dup1\n      revert\n    tag_50:\n      pop\n      tag_51\n      tag_52\n      jump\t// in\n    tag_51:\n      mload(0x40)\n      tag_53\n      swap2\n      swap1\n      tag_26\n      jump\t// in\n    tag_53:\n      mload(0x40)\n      dup1\n      swap2\n      sub\n      swap1\n      return\n        /* \"contracts/Funding (1).sol\":471:515  mapping(address => uint256) public donations */\n    tag_10:\n      callvalue\n      dup1\n      iszero\n      tag_54\n      jumpi\n      0x00\n      dup1\n      revert\n    tag_54:\n      pop\n      tag_55\n      0x04\n      dup1\n      calldatasize\n      sub\n      dup2\n      add\n      swap1\n      tag_56\n      swap2\n      swap1\n      tag_45\n      jump\t// in\n    tag_56:\n      tag_57\n      jump\t// in\n    tag_55:\n      mload(0x40)\n      tag_58\n      swap2\n      swap1\n      tag_26\n      jump\t// in\n    tag_58:\n      mload(0x40)\n      dup1\n      swap2\n      sub\n      swap1\n      return\n        /* \"contracts/Funding (1).sol\":440:465  address[] public donaters */\n    tag_11:\n      callvalue\n      dup1\n      iszero\n      tag_59\n      jumpi\n      0x00\n      dup1\n      revert\n    tag_59:\n      pop\n      tag_60\n      0x04\n      dup1\n      calldatasize\n      sub\n      dup2\n      add\n      swap1\n      tag_61\n      swap2\n      swap1\n      tag_62\n      jump\t// in\n    tag_61:\n      tag_63\n      jump\t// in\n    tag_60:\n      mload(0x40)\n      tag_64\n      swap2\n      swap1\n      tag_41\n      jump\t// in\n    tag_64:\n      mload(0x40)\n      dup1\n      swap2\n      sub\n      swap1\n      return\n        /* \"contracts/Funding (1).sol\":1201:1871  function donate() public payable { //recoie de l'Eth... */\n    tag_12:\n      tag_65\n      tag_18\n      jump\t// in\n    tag_65:\n      stop\n        /* \"contracts/Funding (1).sol\":542:567  address public receipient */\n    tag_13:\n      callvalue\n      dup1\n      iszero\n      tag_66\n      jumpi\n      0x00\n      dup1\n      revert\n    tag_66:\n      pop\n      tag_67\n      tag_68\n      jump\t// in\n    tag_67:\n      mload(0x40)\n      tag_69\n      swap2\n      swap1\n      tag_41\n      jump\t// in\n    tag_69:\n      mload(0x40)\n      dup1\n      swap2\n      sub\n      swap1\n      return\n        /* \"contracts/Funding (1).sol\":1201:1871  function donate() public payable { //recoie de l'Eth... */\n    tag_18:\n        /* \"contracts/Funding (1).sol\":1267:1273  status */\n      0x04\n      0x14\n      swap1\n      sload\n      swap1\n      0x0100\n      exp\n      swap1\n      div\n      0xff\n      and\n        /* \"contracts/Funding (1).sol\":1262:1381  if (!status) {... */\n      tag_71\n      jumpi\n        /* \"contracts/Funding (1).sol\":1289:1326  revert(\"Le contrat n'est plus actif\") */\n      mload(0x40)\n      0x08c379a000000000000000000000000000000000000000000000000000000000\n      dup2\n      mstore\n      0x04\n      add\n      tag_72\n      swap1\n      tag_73\n      jump\t// in\n    tag_72:\n      mload(0x40)\n      dup1\n      swap2\n      sub\n      swap1\n      revert\n        /* \"contracts/Funding (1).sol\":1262:1381  if (!status) {... */\n    tag_71:\n        /* \"contracts/Funding (1).sol\":1416:1417  0 */\n      0x00\n        /* \"contracts/Funding (1).sol\":1393:1402  donations */\n      0x03\n        /* \"contracts/Funding (1).sol\":1393:1414  donations[msg.sender] */\n      0x00\n        /* \"contracts/Funding (1).sol\":1403:1413  msg.sender */\n      caller\n        /* \"contracts/Funding (1).sol\":1393:1414  donations[msg.sender] */\n      0xffffffffffffffffffffffffffffffffffffffff\n      and\n      0xffffffffffffffffffffffffffffffffffffffff\n      and\n      dup2\n      mstore\n      0x20\n      add\n      swap1\n      dup2\n      mstore\n      0x20\n      add\n      0x00\n      keccak256\n      sload\n        /* \"contracts/Funding (1).sol\":1393:1417  donations[msg.sender]==0 */\n      sub\n        /* \"contracts/Funding (1).sol\":1390:1456  if(donations[msg.sender]==0)... */\n      tag_74\n      jumpi\n        /* \"contracts/Funding (1).sol\":1431:1439  donaters */\n      0x02\n        /* \"contracts/Funding (1).sol\":1445:1455  msg.sender */\n      caller\n        /* \"contracts/Funding (1).sol\":1431:1456  donaters.push(msg.sender) */\n      swap1\n      dup1\n      0x01\n      dup2\n      sload\n      add\n      dup1\n      dup3\n      sstore\n      dup1\n      swap2\n      pop\n      pop\n      0x01\n      swap1\n      sub\n      swap1\n      0x00\n      mstore\n      keccak256(0x00, 0x20)\n      add\n      0x00\n      swap1\n      swap2\n      swap1\n      swap2\n      swap1\n      swap2\n      0x0100\n      exp\n      dup2\n      sload\n      dup2\n      0xffffffffffffffffffffffffffffffffffffffff\n      mul\n      not\n      and\n      swap1\n      dup4\n      0xffffffffffffffffffffffffffffffffffffffff\n      and\n      mul\n      or\n      swap1\n      sstore\n      pop\n        /* \"contracts/Funding (1).sol\":1390:1456  if(donations[msg.sender]==0)... */\n    tag_74:\n        /* \"contracts/Funding (1).sol\":1566:1588  uint256 donationAmount */\n      0x00\n        /* \"contracts/Funding (1).sol\":1591:1600  msg.value */\n      callvalue\n        /* \"contracts/Funding (1).sol\":1566:1600  uint256 donationAmount = msg.value */\n      swap1\n      pop\n        /* \"contracts/Funding (1).sol\":1639:1658  uint256 ownerAmount */\n      0x00\n        /* \"contracts/Funding (1).sol\":1688:1691  100 */\n      0x64\n        /* \"contracts/Funding (1).sol\":305:306  5 */\n      0x05\n        /* \"contracts/Funding (1).sol\":1662:1684  donationAmount * ratio */\n      0xff\n      and\n        /* \"contracts/Funding (1).sol\":1662:1676  donationAmount */\n      dup4\n        /* \"contracts/Funding (1).sol\":1662:1684  donationAmount * ratio */\n      tag_76\n      swap2\n      swap1\n      tag_77\n      jump\t// in\n    tag_76:\n        /* \"contracts/Funding (1).sol\":1661:1691  (donationAmount * ratio) / 100 */\n      tag_78\n      swap2\n      swap1\n      tag_79\n      jump\t// in\n    tag_78:\n        /* \"contracts/Funding (1).sol\":1639:1691  uint256 ownerAmount = (donationAmount * ratio) / 100 */\n      swap1\n      pop\n        /* \"contracts/Funding (1).sol\":1726:1740  donationAmount */\n      dup2\n        /* \"contracts/Funding (1).sol\":1701:1710  donations */\n      0x03\n        /* \"contracts/Funding (1).sol\":1701:1722  donations[msg.sender] */\n      0x00\n        /* \"contracts/Funding (1).sol\":1711:1721  msg.sender */\n      caller\n        /* \"contracts/Funding (1).sol\":1701:1722  donations[msg.sender] */\n      0xffffffffffffffffffffffffffffffffffffffff\n      and\n      0xffffffffffffffffffffffffffffffffffffffff\n      and\n      dup2\n      mstore\n      0x20\n      add\n      swap1\n      dup2\n      mstore\n      0x20\n      add\n      0x00\n      keccak256\n      0x00\n        /* \"contracts/Funding (1).sol\":1701:1740  donations[msg.sender] += donationAmount */\n      dup3\n      dup3\n      sload\n      tag_80\n      swap2\n      swap1\n      tag_81\n      jump\t// in\n    tag_80:\n      swap3\n      pop\n      pop\n      dup2\n      swap1\n      sstore\n      pop\n        /* \"contracts/Funding (1).sol\":1803:1808  owner */\n      0x01\n      0x00\n      swap1\n      sload\n      swap1\n      0x0100\n      exp\n      swap1\n      div\n      0xffffffffffffffffffffffffffffffffffffffff\n      and\n        /* \"contracts/Funding (1).sol\":1795:1818  payable(owner).transfer */\n      0xffffffffffffffffffffffffffffffffffffffff\n      and\n        /* \"contracts/Funding (1).sol\":1795:1831  payable(owner).transfer(ownerAmount) */\n      0x08fc\n        /* \"contracts/Funding (1).sol\":1819:1830  ownerAmount */\n      dup3\n        /* \"contracts/Funding (1).sol\":1795:1831  payable(owner).transfer(ownerAmount) */\n      swap1\n      dup2\n      iszero\n      mul\n      swap1\n      mload(0x40)\n      0x00\n      mload(0x40)\n      dup1\n      dup4\n      sub\n      dup2\n      dup6\n      dup9\n      dup9\n      call\n      swap4\n      pop\n      pop\n      pop\n      pop\n      iszero\n      dup1\n      iszero\n      tag_83\n      jumpi\n      returndatasize\n      0x00\n      dup1\n      returndatacopy\n      revert(0x00, returndatasize)\n    tag_83:\n      pop\n        /* \"contracts/Funding (1).sol\":1234:1871  { //recoie de l'Eth... */\n      pop\n      pop\n        /* \"contracts/Funding (1).sol\":1201:1871  function donate() public payable { //recoie de l'Eth... */\n      jump\t// out\n        /* \"contracts/Funding (1).sol\":223:243  uint256 public seuil */\n    tag_24:\n      sload(0x00)\n      dup2\n      jump\t// out\n        /* \"contracts/Funding (1).sol\":588:606  bool public status */\n    tag_29:\n      0x04\n      0x14\n      swap1\n      sload\n      swap1\n      0x0100\n      exp\n      swap1\n      div\n      0xff\n      and\n      dup2\n      jump\t// out\n        /* \"contracts/Funding (1).sol\":275:306  uint8 public constant ratio = 5 */\n    tag_34:\n        /* \"contracts/Funding (1).sol\":305:306  5 */\n      0x05\n        /* \"contracts/Funding (1).sol\":275:306  uint8 public constant ratio = 5 */\n      dup2\n      jump\t// out\n        /* \"contracts/Funding (1).sol\":386:406  address public owner */\n    tag_39:\n      0x01\n      0x00\n      swap1\n      sload\n      swap1\n      0x0100\n      exp\n      swap1\n      div\n      0xffffffffffffffffffffffffffffffffffffffff\n      and\n      dup2\n      jump\t// out\n        /* \"contracts/Funding (1).sol\":1027:1195  function changeOwner(address _owner) public {... */\n    tag_46:\n        /* \"contracts/Funding (1).sol\":1096:1101  owner */\n      0x01\n      0x00\n      swap1\n      sload\n      swap1\n      0x0100\n      exp\n      swap1\n      div\n      0xffffffffffffffffffffffffffffffffffffffff\n      and\n        /* \"contracts/Funding (1).sol\":1084:1101  msg.sender==owner */\n      0xffffffffffffffffffffffffffffffffffffffff\n      and\n        /* \"contracts/Funding (1).sol\":1084:1094  msg.sender */\n      caller\n        /* \"contracts/Funding (1).sol\":1084:1101  msg.sender==owner */\n      0xffffffffffffffffffffffffffffffffffffffff\n      and\n      sub\n        /* \"contracts/Funding (1).sol\":1081:1188  if(msg.sender==owner)... */\n      tag_85\n      jumpi\n        /* \"contracts/Funding (1).sol\":1123:1129  _owner */\n      dup1\n        /* \"contracts/Funding (1).sol\":1115:1120  owner */\n      0x01\n      0x00\n        /* \"contracts/Funding (1).sol\":1115:1129  owner = _owner */\n      0x0100\n      exp\n      dup2\n      sload\n      dup2\n      0xffffffffffffffffffffffffffffffffffffffff\n      mul\n      not\n      and\n      swap1\n      dup4\n      0xffffffffffffffffffffffffffffffffffffffff\n      and\n      mul\n      or\n      swap1\n      sstore\n      pop\n        /* \"contracts/Funding (1).sol\":1081:1188  if(msg.sender==owner)... */\n      jump(tag_86)\n    tag_85:\n        /* \"contracts/Funding (1).sol\":1157:1188  revert(\"you must be the owner\") */\n      mload(0x40)\n      0x08c379a000000000000000000000000000000000000000000000000000000000\n      dup2\n      mstore\n      0x04\n      add\n      tag_87\n      swap1\n      tag_88\n      jump\t// in\n    tag_87:\n      mload(0x40)\n      dup1\n      swap2\n      sub\n      swap1\n      revert\n        /* \"contracts/Funding (1).sol\":1081:1188  if(msg.sender==owner)... */\n    tag_86:\n        /* \"contracts/Funding (1).sol\":1027:1195  function changeOwner(address _owner) public {... */\n      pop\n      jump\t// out\n        /* \"contracts/Funding (1).sol\":1881:2649  function redeem() public {... */\n    tag_49:\n        /* \"contracts/Funding (1).sol\":2305:2310  seuil */\n      sload(0x00)\n        /* \"contracts/Funding (1).sol\":2280:2301  address(this).balance */\n      selfbalance\n        /* \"contracts/Funding (1).sol\":2280:2310  address(this).balance >= seuil */\n      lt\n      iszero\n        /* \"contracts/Funding (1).sol\":2272:2332  require(address(this).balance >= seuil, \"Seuil non atteint\") */\n      tag_90\n      jumpi\n      mload(0x40)\n      0x08c379a000000000000000000000000000000000000000000000000000000000\n      dup2\n      mstore\n      0x04\n      add\n      tag_91\n      swap1\n      tag_92\n      jump\t// in\n    tag_91:\n      mload(0x40)\n      dup1\n      swap2\n      sub\n      swap1\n      revert\n    tag_90:\n        /* \"contracts/Funding (1).sol\":2447:2453  status */\n      0x04\n      0x14\n      swap1\n      sload\n      swap1\n      0x0100\n      exp\n      swap1\n      div\n      0xff\n      and\n        /* \"contracts/Funding (1).sol\":2439:2485  require(status, \"Le contrat n'est plus actif\") */\n      tag_93\n      jumpi\n      mload(0x40)\n      0x08c379a000000000000000000000000000000000000000000000000000000000\n      dup2\n      mstore\n      0x04\n      add\n      tag_94\n      swap1\n      tag_73\n      jump\t// in\n    tag_94:\n      mload(0x40)\n      dup1\n      swap2\n      sub\n      swap1\n      revert\n    tag_93:\n        /* \"contracts/Funding (1).sol\":2503:2513  receipient */\n      0x04\n      0x00\n      swap1\n      sload\n      swap1\n      0x0100\n      exp\n      swap1\n      div\n      0xffffffffffffffffffffffffffffffffffffffff\n      and\n        /* \"contracts/Funding (1).sol\":2495:2523  payable(receipient).transfer */\n      0xffffffffffffffffffffffffffffffffffffffff\n      and\n        /* \"contracts/Funding (1).sol\":2495:2546  payable(receipient).transfer(address(this).balance) */\n      0x08fc\n        /* \"contracts/Funding (1).sol\":2524:2545  address(this).balance */\n      selfbalance\n        /* \"contracts/Funding (1).sol\":2495:2546  payable(receipient).transfer(address(this).balance) */\n      swap1\n      dup2\n      iszero\n      mul\n      swap1\n      mload(0x40)\n      0x00\n      mload(0x40)\n      dup1\n      dup4\n      sub\n      dup2\n      dup6\n      dup9\n      dup9\n      call\n      swap4\n      pop\n      pop\n      pop\n      pop\n      iszero\n      dup1\n      iszero\n      tag_96\n      jumpi\n      returndatasize\n      0x00\n      dup1\n      returndatacopy\n      revert(0x00, returndatasize)\n    tag_96:\n      pop\n        /* \"contracts/Funding (1).sol\":2565:2570  false */\n      0x00\n        /* \"contracts/Funding (1).sol\":2556:2562  status */\n      0x04\n      0x14\n        /* \"contracts/Funding (1).sol\":2556:2570  status = false */\n      0x0100\n      exp\n      dup2\n      sload\n      dup2\n      0xff\n      mul\n      not\n      and\n      swap1\n      dup4\n      iszero\n      iszero\n      mul\n      or\n      swap1\n      sstore\n      pop\n        /* \"contracts/Funding (1).sol\":1881:2649  function redeem() public {... */\n      jump\t// out\n        /* \"contracts/Funding (1).sol\":930:1022  function nbr_donations() public view returns(uint256){... */\n    tag_52:\n        /* \"contracts/Funding (1).sol\":975:982  uint256 */\n      0x00\n        /* \"contracts/Funding (1).sol\":1000:1008  donaters */\n      0x02\n        /* \"contracts/Funding (1).sol\":1000:1015  donaters.length */\n      dup1\n      sload\n      swap1\n      pop\n        /* \"contracts/Funding (1).sol\":993:1015  return donaters.length */\n      swap1\n      pop\n        /* \"contracts/Funding (1).sol\":930:1022  function nbr_donations() public view returns(uint256){... */\n      swap1\n      jump\t// out\n        /* \"contracts/Funding (1).sol\":471:515  mapping(address => uint256) public donations */\n    tag_57:\n      mstore(0x20, 0x03)\n      dup1\n      0x00\n      mstore\n      keccak256(0x00, 0x40)\n      0x00\n      swap2\n      pop\n      swap1\n      pop\n      sload\n      dup2\n      jump\t// out\n        /* \"contracts/Funding (1).sol\":440:465  address[] public donaters */\n    tag_63:\n      0x02\n      dup2\n      dup2\n      sload\n      dup2\n      lt\n      tag_98\n      jumpi\n      0x00\n      dup1\n      revert\n    tag_98:\n      swap1\n      0x00\n      mstore\n      keccak256(0x00, 0x20)\n      add\n      0x00\n      swap2\n      pop\n      sload\n      swap1\n      0x0100\n      exp\n      swap1\n      div\n      0xffffffffffffffffffffffffffffffffffffffff\n      and\n      dup2\n      jump\t// out\n        /* \"contracts/Funding (1).sol\":542:567  address public receipient */\n    tag_68:\n      0x04\n      0x00\n      swap1\n      sload\n      swap1\n      0x0100\n      exp\n      swap1\n      div\n      0xffffffffffffffffffffffffffffffffffffffff\n      and\n      dup2\n      jump\t// out\n        /* \"#utility.yul\":7:84   */\n    tag_100:\n        /* \"#utility.yul\":44:51   */\n      0x00\n        /* \"#utility.yul\":73:78   */\n      dup2\n        /* \"#utility.yul\":62:78   */\n      swap1\n      pop\n        /* \"#utility.yul\":7:84   */\n      swap2\n      swap1\n      pop\n      jump\t// out\n        /* \"#utility.yul\":90:208   */\n    tag_101:\n        /* \"#utility.yul\":177:201   */\n      tag_128\n        /* \"#utility.yul\":195:200   */\n      dup2\n        /* \"#utility.yul\":177:201   */\n      tag_100\n      jump\t// in\n    tag_128:\n        /* \"#utility.yul\":172:175   */\n      dup3\n        /* \"#utility.yul\":165:202   */\n      mstore\n        /* \"#utility.yul\":90:208   */\n      pop\n      pop\n      jump\t// out\n        /* \"#utility.yul\":214:436   */\n    tag_26:\n        /* \"#utility.yul\":307:311   */\n      0x00\n        /* \"#utility.yul\":345:347   */\n      0x20\n        /* \"#utility.yul\":334:343   */\n      dup3\n        /* \"#utility.yul\":330:348   */\n      add\n        /* \"#utility.yul\":322:348   */\n      swap1\n      pop\n        /* \"#utility.yul\":358:429   */\n      tag_130\n        /* \"#utility.yul\":426:427   */\n      0x00\n        /* \"#utility.yul\":415:424   */\n      dup4\n        /* \"#utility.yul\":411:428   */\n      add\n        /* \"#utility.yul\":402:408   */\n      dup5\n        /* \"#utility.yul\":358:429   */\n      tag_101\n      jump\t// in\n    tag_130:\n        /* \"#utility.yul\":214:436   */\n      swap3\n      swap2\n      pop\n      pop\n      jump\t// out\n        /* \"#utility.yul\":442:532   */\n    tag_102:\n        /* \"#utility.yul\":476:483   */\n      0x00\n        /* \"#utility.yul\":519:524   */\n      dup2\n        /* \"#utility.yul\":512:525   */\n      iszero\n        /* \"#utility.yul\":505:526   */\n      iszero\n        /* \"#utility.yul\":494:526   */\n      swap1\n      pop\n        /* \"#utility.yul\":442:532   */\n      swap2\n      swap1\n      pop\n      jump\t// out\n        /* \"#utility.yul\":538:647   */\n    tag_103:\n        /* \"#utility.yul\":619:640   */\n      tag_133\n        /* \"#utility.yul\":634:639   */\n      dup2\n        /* \"#utility.yul\":619:640   */\n      tag_102\n      jump\t// in\n    tag_133:\n        /* \"#utility.yul\":614:617   */\n      dup3\n        /* \"#utility.yul\":607:641   */\n      mstore\n        /* \"#utility.yul\":538:647   */\n      pop\n      pop\n      jump\t// out\n        /* \"#utility.yul\":653:863   */\n    tag_31:\n        /* \"#utility.yul\":740:744   */\n      0x00\n        /* \"#utility.yul\":778:780   */\n      0x20\n        /* \"#utility.yul\":767:776   */\n      dup3\n        /* \"#utility.yul\":763:781   */\n      add\n        /* \"#utility.yul\":755:781   */\n      swap1\n      pop\n        /* \"#utility.yul\":791:856   */\n      tag_135\n        /* \"#utility.yul\":853:854   */\n      0x00\n        /* \"#utility.yul\":842:851   */\n      dup4\n        /* \"#utility.yul\":838:855   */\n      add\n        /* \"#utility.yul\":829:835   */\n      dup5\n        /* \"#utility.yul\":791:856   */\n      tag_103\n      jump\t// in\n    tag_135:\n        /* \"#utility.yul\":653:863   */\n      swap3\n      swap2\n      pop\n      pop\n      jump\t// out\n        /* \"#utility.yul\":869:955   */\n    tag_104:\n        /* \"#utility.yul\":904:911   */\n      0x00\n        /* \"#utility.yul\":944:948   */\n      0xff\n        /* \"#utility.yul\":937:942   */\n      dup3\n        /* \"#utility.yul\":933:949   */\n      and\n        /* \"#utility.yul\":922:949   */\n      swap1\n      pop\n        /* \"#utility.yul\":869:955   */\n      swap2\n      swap1\n      pop\n      jump\t// out\n        /* \"#utility.yul\":961:1073   */\n    tag_105:\n        /* \"#utility.yul\":1044:1066   */\n      tag_138\n        /* \"#utility.yul\":1060:1065   */\n      dup2\n        /* \"#utility.yul\":1044:1066   */\n      tag_104\n      jump\t// in\n    tag_138:\n        /* \"#utility.yul\":1039:1042   */\n      dup3\n        /* \"#utility.yul\":1032:1067   */\n      mstore\n        /* \"#utility.yul\":961:1073   */\n      pop\n      pop\n      jump\t// out\n        /* \"#utility.yul\":1079:1293   */\n    tag_36:\n        /* \"#utility.yul\":1168:1172   */\n      0x00\n        /* \"#utility.yul\":1206:1208   */\n      0x20\n        /* \"#utility.yul\":1195:1204   */\n      dup3\n        /* \"#utility.yul\":1191:1209   */\n      add\n        /* \"#utility.yul\":1183:1209   */\n      swap1\n      pop\n        /* \"#utility.yul\":1219:1286   */\n      tag_140\n        /* \"#utility.yul\":1283:1284   */\n      0x00\n        /* \"#utility.yul\":1272:1281   */\n      dup4\n        /* \"#utility.yul\":1268:1285   */\n      add\n        /* \"#utility.yul\":1259:1265   */\n      dup5\n        /* \"#utility.yul\":1219:1286   */\n      tag_105\n      jump\t// in\n    tag_140:\n        /* \"#utility.yul\":1079:1293   */\n      swap3\n      swap2\n      pop\n      pop\n      jump\t// out\n        /* \"#utility.yul\":1299:1425   */\n    tag_106:\n        /* \"#utility.yul\":1336:1343   */\n      0x00\n        /* \"#utility.yul\":1376:1418   */\n      0xffffffffffffffffffffffffffffffffffffffff\n        /* \"#utility.yul\":1369:1374   */\n      dup3\n        /* \"#utility.yul\":1365:1419   */\n      and\n        /* \"#utility.yul\":1354:1419   */\n      swap1\n      pop\n        /* \"#utility.yul\":1299:1425   */\n      swap2\n      swap1\n      pop\n      jump\t// out\n        /* \"#utility.yul\":1431:1527   */\n    tag_107:\n        /* \"#utility.yul\":1468:1475   */\n      0x00\n        /* \"#utility.yul\":1497:1521   */\n      tag_143\n        /* \"#utility.yul\":1515:1520   */\n      dup3\n        /* \"#utility.yul\":1497:1521   */\n      tag_106\n      jump\t// in\n    tag_143:\n        /* \"#utility.yul\":1486:1521   */\n      swap1\n      pop\n        /* \"#utility.yul\":1431:1527   */\n      swap2\n      swap1\n      pop\n      jump\t// out\n        /* \"#utility.yul\":1533:1651   */\n    tag_108:\n        /* \"#utility.yul\":1620:1644   */\n      tag_145\n        /* \"#utility.yul\":1638:1643   */\n      dup2\n        /* \"#utility.yul\":1620:1644   */\n      tag_107\n      jump\t// in\n    tag_145:\n        /* \"#utility.yul\":1615:1618   */\n      dup3\n        /* \"#utility.yul\":1608:1645   */\n      mstore\n        /* \"#utility.yul\":1533:1651   */\n      pop\n      pop\n      jump\t// out\n        /* \"#utility.yul\":1657:1879   */\n    tag_41:\n        /* \"#utility.yul\":1750:1754   */\n      0x00\n        /* \"#utility.yul\":1788:1790   */\n      0x20\n        /* \"#utility.yul\":1777:1786   */\n      dup3\n        /* \"#utility.yul\":1773:1791   */\n      add\n        /* \"#utility.yul\":1765:1791   */\n      swap1\n      pop\n        /* \"#utility.yul\":1801:1872   */\n      tag_147\n        /* \"#utility.yul\":1869:1870   */\n      0x00\n        /* \"#utility.yul\":1858:1867   */\n      dup4\n        /* \"#utility.yul\":1854:1871   */\n      add\n        /* \"#utility.yul\":1845:1851   */\n      dup5\n        /* \"#utility.yul\":1801:1872   */\n      tag_108\n      jump\t// in\n    tag_147:\n        /* \"#utility.yul\":1657:1879   */\n      swap3\n      swap2\n      pop\n      pop\n      jump\t// out\n        /* \"#utility.yul\":1966:2083   */\n    tag_110:\n        /* \"#utility.yul\":2075:2076   */\n      0x00\n        /* \"#utility.yul\":2072:2073   */\n      dup1\n        /* \"#utility.yul\":2065:2077   */\n      revert\n        /* \"#utility.yul\":2212:2334   */\n    tag_112:\n        /* \"#utility.yul\":2285:2309   */\n      tag_152\n        /* \"#utility.yul\":2303:2308   */\n      dup2\n        /* \"#utility.yul\":2285:2309   */\n      tag_107\n      jump\t// in\n    tag_152:\n        /* \"#utility.yul\":2278:2283   */\n      dup2\n        /* \"#utility.yul\":2275:2310   */\n      eq\n        /* \"#utility.yul\":2265:2328   */\n      tag_153\n      jumpi\n        /* \"#utility.yul\":2324:2325   */\n      0x00\n        /* \"#utility.yul\":2321:2322   */\n      dup1\n        /* \"#utility.yul\":2314:2326   */\n      revert\n        /* \"#utility.yul\":2265:2328   */\n    tag_153:\n        /* \"#utility.yul\":2212:2334   */\n      pop\n      jump\t// out\n        /* \"#utility.yul\":2340:2479   */\n    tag_113:\n        /* \"#utility.yul\":2386:2391   */\n      0x00\n        /* \"#utility.yul\":2424:2430   */\n      dup2\n        /* \"#utility.yul\":2411:2431   */\n      calldataload\n        /* \"#utility.yul\":2402:2431   */\n      swap1\n      pop\n        /* \"#utility.yul\":2440:2473   */\n      tag_155\n        /* \"#utility.yul\":2467:2472   */\n      dup2\n        /* \"#utility.yul\":2440:2473   */\n      tag_112\n      jump\t// in\n    tag_155:\n        /* \"#utility.yul\":2340:2479   */\n      swap3\n      swap2\n      pop\n      pop\n      jump\t// out\n        /* \"#utility.yul\":2485:2814   */\n    tag_45:\n        /* \"#utility.yul\":2544:2550   */\n      0x00\n        /* \"#utility.yul\":2593:2595   */\n      0x20\n        /* \"#utility.yul\":2581:2590   */\n      dup3\n        /* \"#utility.yul\":2572:2579   */\n      dup5\n        /* \"#utility.yul\":2568:2591   */\n      sub\n        /* \"#utility.yul\":2564:2596   */\n      slt\n        /* \"#utility.yul\":2561:2680   */\n      iszero\n      tag_157\n      jumpi\n        /* \"#utility.yul\":2599:2678   */\n      tag_158\n      tag_110\n      jump\t// in\n    tag_158:\n        /* \"#utility.yul\":2561:2680   */\n    tag_157:\n        /* \"#utility.yul\":2719:2720   */\n      0x00\n        /* \"#utility.yul\":2744:2797   */\n      tag_159\n        /* \"#utility.yul\":2789:2796   */\n      dup5\n        /* \"#utility.yul\":2780:2786   */\n      dup3\n        /* \"#utility.yul\":2769:2778   */\n      dup6\n        /* \"#utility.yul\":2765:2787   */\n      add\n        /* \"#utility.yul\":2744:2797   */\n      tag_113\n      jump\t// in\n    tag_159:\n        /* \"#utility.yul\":2734:2797   */\n      swap2\n      pop\n        /* \"#utility.yul\":2690:2807   */\n      pop\n        /* \"#utility.yul\":2485:2814   */\n      swap3\n      swap2\n      pop\n      pop\n      jump\t// out\n        /* \"#utility.yul\":2820:2942   */\n    tag_114:\n        /* \"#utility.yul\":2893:2917   */\n      tag_161\n        /* \"#utility.yul\":2911:2916   */\n      dup2\n        /* \"#utility.yul\":2893:2917   */\n      tag_100\n      jump\t// in\n    tag_161:\n        /* \"#utility.yul\":2886:2891   */\n      dup2\n        /* \"#utility.yul\":2883:2918   */\n      eq\n        /* \"#utility.yul\":2873:2936   */\n      tag_162\n      jumpi\n        /* \"#utility.yul\":2932:2933   */\n      0x00\n        /* \"#utility.yul\":2929:2930   */\n      dup1\n        /* \"#utility.yul\":2922:2934   */\n      revert\n        /* \"#utility.yul\":2873:2936   */\n    tag_162:\n        /* \"#utility.yul\":2820:2942   */\n      pop\n      jump\t// out\n        /* \"#utility.yul\":2948:3087   */\n    tag_115:\n        /* \"#utility.yul\":2994:2999   */\n      0x00\n        /* \"#utility.yul\":3032:3038   */\n      dup2\n        /* \"#utility.yul\":3019:3039   */\n      calldataload\n        /* \"#utility.yul\":3010:3039   */\n      swap1\n      pop\n        /* \"#utility.yul\":3048:3081   */\n      tag_164\n        /* \"#utility.yul\":3075:3080   */\n      dup2\n        /* \"#utility.yul\":3048:3081   */\n      tag_114\n      jump\t// in\n    tag_164:\n        /* \"#utility.yul\":2948:3087   */\n      swap3\n      swap2\n      pop\n      pop\n      jump\t// out\n        /* \"#utility.yul\":3093:3422   */\n    tag_62:\n        /* \"#utility.yul\":3152:3158   */\n      0x00\n        /* \"#utility.yul\":3201:3203   */\n      0x20\n        /* \"#utility.yul\":3189:3198   */\n      dup3\n        /* \"#utility.yul\":3180:3187   */\n      dup5\n        /* \"#utility.yul\":3176:3199   */\n      sub\n        /* \"#utility.yul\":3172:3204   */\n      slt\n        /* \"#utility.yul\":3169:3288   */\n      iszero\n      tag_166\n      jumpi\n        /* \"#utility.yul\":3207:3286   */\n      tag_167\n      tag_110\n      jump\t// in\n    tag_167:\n        /* \"#utility.yul\":3169:3288   */\n    tag_166:\n        /* \"#utility.yul\":3327:3328   */\n      0x00\n        /* \"#utility.yul\":3352:3405   */\n      tag_168\n        /* \"#utility.yul\":3397:3404   */\n      dup5\n        /* \"#utility.yul\":3388:3394   */\n      dup3\n        /* \"#utility.yul\":3377:3386   */\n      dup6\n        /* \"#utility.yul\":3373:3395   */\n      add\n        /* \"#utility.yul\":3352:3405   */\n      tag_115\n      jump\t// in\n    tag_168:\n        /* \"#utility.yul\":3342:3405   */\n      swap2\n      pop\n        /* \"#utility.yul\":3298:3415   */\n      pop\n        /* \"#utility.yul\":3093:3422   */\n      swap3\n      swap2\n      pop\n      pop\n      jump\t// out\n        /* \"#utility.yul\":3428:3597   */\n    tag_116:\n        /* \"#utility.yul\":3512:3523   */\n      0x00\n        /* \"#utility.yul\":3546:3552   */\n      dup3\n        /* \"#utility.yul\":3541:3544   */\n      dup3\n        /* \"#utility.yul\":3534:3553   */\n      mstore\n        /* \"#utility.yul\":3586:3590   */\n      0x20\n        /* \"#utility.yul\":3581:3584   */\n      dup3\n        /* \"#utility.yul\":3577:3591   */\n      add\n        /* \"#utility.yul\":3562:3591   */\n      swap1\n      pop\n        /* \"#utility.yul\":3428:3597   */\n      swap3\n      swap2\n      pop\n      pop\n      jump\t// out\n        /* \"#utility.yul\":3603:3780   */\n    tag_117:\n        /* \"#utility.yul\":3743:3772   */\n      0x4c6520636f6e74726174206e2765737420706c75732061637469660000000000\n        /* \"#utility.yul\":3739:3740   */\n      0x00\n        /* \"#utility.yul\":3731:3737   */\n      dup3\n        /* \"#utility.yul\":3727:3741   */\n      add\n        /* \"#utility.yul\":3720:3773   */\n      mstore\n        /* \"#utility.yul\":3603:3780   */\n      pop\n      jump\t// out\n        /* \"#utility.yul\":3786:4152   */\n    tag_118:\n        /* \"#utility.yul\":3928:3931   */\n      0x00\n        /* \"#utility.yul\":3949:4016   */\n      tag_172\n        /* \"#utility.yul\":4013:4015   */\n      0x1b\n        /* \"#utility.yul\":4008:4011   */\n      dup4\n        /* \"#utility.yul\":3949:4016   */\n      tag_116\n      jump\t// in\n    tag_172:\n        /* \"#utility.yul\":3942:4016   */\n      swap2\n      pop\n        /* \"#utility.yul\":4025:4118   */\n      tag_173\n        /* \"#utility.yul\":4114:4117   */\n      dup3\n        /* \"#utility.yul\":4025:4118   */\n      tag_117\n      jump\t// in\n    tag_173:\n        /* \"#utility.yul\":4143:4145   */\n      0x20\n        /* \"#utility.yul\":4138:4141   */\n      dup3\n        /* \"#utility.yul\":4134:4146   */\n      add\n        /* \"#utility.yul\":4127:4146   */\n      swap1\n      pop\n        /* \"#utility.yul\":3786:4152   */\n      swap2\n      swap1\n      pop\n      jump\t// out\n        /* \"#utility.yul\":4158:4577   */\n    tag_73:\n        /* \"#utility.yul\":4324:4328   */\n      0x00\n        /* \"#utility.yul\":4362:4364   */\n      0x20\n        /* \"#utility.yul\":4351:4360   */\n      dup3\n        /* \"#utility.yul\":4347:4365   */\n      add\n        /* \"#utility.yul\":4339:4365   */\n      swap1\n      pop\n        /* \"#utility.yul\":4411:4420   */\n      dup2\n        /* \"#utility.yul\":4405:4409   */\n      dup2\n        /* \"#utility.yul\":4401:4421   */\n      sub\n        /* \"#utility.yul\":4397:4398   */\n      0x00\n        /* \"#utility.yul\":4386:4395   */\n      dup4\n        /* \"#utility.yul\":4382:4399   */\n      add\n        /* \"#utility.yul\":4375:4422   */\n      mstore\n        /* \"#utility.yul\":4439:4570   */\n      tag_175\n        /* \"#utility.yul\":4565:4569   */\n      dup2\n        /* \"#utility.yul\":4439:4570   */\n      tag_118\n      jump\t// in\n    tag_175:\n        /* \"#utility.yul\":4431:4570   */\n      swap1\n      pop\n        /* \"#utility.yul\":4158:4577   */\n      swap2\n      swap1\n      pop\n      jump\t// out\n        /* \"#utility.yul\":4583:4763   */\n    tag_119:\n        /* \"#utility.yul\":4631:4708   */\n      0x4e487b7100000000000000000000000000000000000000000000000000000000\n        /* \"#utility.yul\":4628:4629   */\n      0x00\n        /* \"#utility.yul\":4621:4709   */\n      mstore\n        /* \"#utility.yul\":4728:4732   */\n      0x11\n        /* \"#utility.yul\":4725:4726   */\n      0x04\n        /* \"#utility.yul\":4718:4733   */\n      mstore\n        /* \"#utility.yul\":4752:4756   */\n      0x24\n        /* \"#utility.yul\":4749:4750   */\n      0x00\n        /* \"#utility.yul\":4742:4757   */\n      revert\n        /* \"#utility.yul\":4769:5179   */\n    tag_77:\n        /* \"#utility.yul\":4809:4816   */\n      0x00\n        /* \"#utility.yul\":4832:4852   */\n      tag_178\n        /* \"#utility.yul\":4850:4851   */\n      dup3\n        /* \"#utility.yul\":4832:4852   */\n      tag_100\n      jump\t// in\n    tag_178:\n        /* \"#utility.yul\":4827:4852   */\n      swap2\n      pop\n        /* \"#utility.yul\":4866:4886   */\n      tag_179\n        /* \"#utility.yul\":4884:4885   */\n      dup4\n        /* \"#utility.yul\":4866:4886   */\n      tag_100\n      jump\t// in\n    tag_179:\n        /* \"#utility.yul\":4861:4886   */\n      swap3\n      pop\n        /* \"#utility.yul\":4921:4922   */\n      dup3\n        /* \"#utility.yul\":4918:4919   */\n      dup3\n        /* \"#utility.yul\":4914:4923   */\n      mul\n        /* \"#utility.yul\":4943:4973   */\n      tag_180\n        /* \"#utility.yul\":4961:4972   */\n      dup2\n        /* \"#utility.yul\":4943:4973   */\n      tag_100\n      jump\t// in\n    tag_180:\n        /* \"#utility.yul\":4932:4973   */\n      swap2\n      pop\n        /* \"#utility.yul\":5122:5123   */\n      dup3\n        /* \"#utility.yul\":5113:5120   */\n      dup3\n        /* \"#utility.yul\":5109:5124   */\n      div\n        /* \"#utility.yul\":5106:5107   */\n      dup5\n        /* \"#utility.yul\":5103:5125   */\n      eq\n        /* \"#utility.yul\":5083:5084   */\n      dup4\n        /* \"#utility.yul\":5076:5085   */\n      iszero\n        /* \"#utility.yul\":5056:5139   */\n      or\n        /* \"#utility.yul\":5033:5172   */\n      tag_181\n      jumpi\n        /* \"#utility.yul\":5152:5170   */\n      tag_182\n      tag_119\n      jump\t// in\n    tag_182:\n        /* \"#utility.yul\":5033:5172   */\n    tag_181:\n        /* \"#utility.yul\":4817:5179   */\n      pop\n        /* \"#utility.yul\":4769:5179   */\n      swap3\n      swap2\n      pop\n      pop\n      jump\t// out\n        /* \"#utility.yul\":5185:5365   */\n    tag_120:\n        /* \"#utility.yul\":5233:5310   */\n      0x4e487b7100000000000000000000000000000000000000000000000000000000\n        /* \"#utility.yul\":5230:5231   */\n      0x00\n        /* \"#utility.yul\":5223:5311   */\n      mstore\n        /* \"#utility.yul\":5330:5334   */\n      0x12\n        /* \"#utility.yul\":5327:5328   */\n      0x04\n        /* \"#utility.yul\":5320:5335   */\n      mstore\n        /* \"#utility.yul\":5354:5358   */\n      0x24\n        /* \"#utility.yul\":5351:5352   */\n      0x00\n        /* \"#utility.yul\":5344:5359   */\n      revert\n        /* \"#utility.yul\":5371:5556   */\n    tag_79:\n        /* \"#utility.yul\":5411:5412   */\n      0x00\n        /* \"#utility.yul\":5428:5448   */\n      tag_185\n        /* \"#utility.yul\":5446:5447   */\n      dup3\n        /* \"#utility.yul\":5428:5448   */\n      tag_100\n      jump\t// in\n    tag_185:\n        /* \"#utility.yul\":5423:5448   */\n      swap2\n      pop\n        /* \"#utility.yul\":5462:5482   */\n      tag_186\n        /* \"#utility.yul\":5480:5481   */\n      dup4\n        /* \"#utility.yul\":5462:5482   */\n      tag_100\n      jump\t// in\n    tag_186:\n        /* \"#utility.yul\":5457:5482   */\n      swap3\n      pop\n        /* \"#utility.yul\":5501:5502   */\n      dup3\n        /* \"#utility.yul\":5491:5526   */\n      tag_187\n      jumpi\n        /* \"#utility.yul\":5506:5524   */\n      tag_188\n      tag_120\n      jump\t// in\n    tag_188:\n        /* \"#utility.yul\":5491:5526   */\n    tag_187:\n        /* \"#utility.yul\":5548:5549   */\n      dup3\n        /* \"#utility.yul\":5545:5546   */\n      dup3\n        /* \"#utility.yul\":5541:5550   */\n      div\n        /* \"#utility.yul\":5536:5550   */\n      swap1\n      pop\n        /* \"#utility.yul\":5371:5556   */\n      swap3\n      swap2\n      pop\n      pop\n      jump\t// out\n        /* \"#utility.yul\":5562:5753   */\n    tag_81:\n        /* \"#utility.yul\":5602:5605   */\n      0x00\n        /* \"#utility.yul\":5621:5641   */\n      tag_190\n        /* \"#utility.yul\":5639:5640   */\n      dup3\n        /* \"#utility.yul\":5621:5641   */\n      tag_100\n      jump\t// in\n    tag_190:\n        /* \"#utility.yul\":5616:5641   */\n      swap2\n      pop\n        /* \"#utility.yul\":5655:5675   */\n      tag_191\n        /* \"#utility.yul\":5673:5674   */\n      dup4\n        /* \"#utility.yul\":5655:5675   */\n      tag_100\n      jump\t// in\n    tag_191:\n        /* \"#utility.yul\":5650:5675   */\n      swap3\n      pop\n        /* \"#utility.yul\":5698:5699   */\n      dup3\n        /* \"#utility.yul\":5695:5696   */\n      dup3\n        /* \"#utility.yul\":5691:5700   */\n      add\n        /* \"#utility.yul\":5684:5700   */\n      swap1\n      pop\n        /* \"#utility.yul\":5719:5722   */\n      dup1\n        /* \"#utility.yul\":5716:5717   */\n      dup3\n        /* \"#utility.yul\":5713:5723   */\n      gt\n        /* \"#utility.yul\":5710:5746   */\n      iszero\n      tag_192\n      jumpi\n        /* \"#utility.yul\":5726:5744   */\n      tag_193\n      tag_119\n      jump\t// in\n    tag_193:\n        /* \"#utility.yul\":5710:5746   */\n    tag_192:\n        /* \"#utility.yul\":5562:5753   */\n      swap3\n      swap2\n      pop\n      pop\n      jump\t// out\n        /* \"#utility.yul\":5759:5930   */\n    tag_121:\n        /* \"#utility.yul\":5899:5922   */\n      0x796f75206d75737420626520746865206f776e65720000000000000000000000\n        /* \"#utility.yul\":5895:5896   */\n      0x00\n        /* \"#utility.yul\":5887:5893   */\n      dup3\n        /* \"#utility.yul\":5883:5897   */\n      add\n        /* \"#utility.yul\":5876:5923   */\n      mstore\n        /* \"#utility.yul\":5759:5930   */\n      pop\n      jump\t// out\n        /* \"#utility.yul\":5936:6302   */\n    tag_122:\n        /* \"#utility.yul\":6078:6081   */\n      0x00\n        /* \"#utility.yul\":6099:6166   */\n      tag_196\n        /* \"#utility.yul\":6163:6165   */\n      0x15\n        /* \"#utility.yul\":6158:6161   */\n      dup4\n        /* \"#utility.yul\":6099:6166   */\n      tag_116\n      jump\t// in\n    tag_196:\n        /* \"#utility.yul\":6092:6166   */\n      swap2\n      pop\n        /* \"#utility.yul\":6175:6268   */\n      tag_197\n        /* \"#utility.yul\":6264:6267   */\n      dup3\n        /* \"#utility.yul\":6175:6268   */\n      tag_121\n      jump\t// in\n    tag_197:\n        /* \"#utility.yul\":6293:6295   */\n      0x20\n        /* \"#utility.yul\":6288:6291   */\n      dup3\n        /* \"#utility.yul\":6284:6296   */\n      add\n        /* \"#utility.yul\":6277:6296   */\n      swap1\n      pop\n        /* \"#utility.yul\":5936:6302   */\n      swap2\n      swap1\n      pop\n      jump\t// out\n        /* \"#utility.yul\":6308:6727   */\n    tag_88:\n        /* \"#utility.yul\":6474:6478   */\n      0x00\n        /* \"#utility.yul\":6512:6514   */\n      0x20\n        /* \"#utility.yul\":6501:6510   */\n      dup3\n        /* \"#utility.yul\":6497:6515   */\n      add\n        /* \"#utility.yul\":6489:6515   */\n      swap1\n      pop\n        /* \"#utility.yul\":6561:6570   */\n      dup2\n        /* \"#utility.yul\":6555:6559   */\n      dup2\n        /* \"#utility.yul\":6551:6571   */\n      sub\n        /* \"#utility.yul\":6547:6548   */\n      0x00\n        /* \"#utility.yul\":6536:6545   */\n      dup4\n        /* \"#utility.yul\":6532:6549   */\n      add\n        /* \"#utility.yul\":6525:6572   */\n      mstore\n        /* \"#utility.yul\":6589:6720   */\n      tag_199\n        /* \"#utility.yul\":6715:6719   */\n      dup2\n        /* \"#utility.yul\":6589:6720   */\n      tag_122\n      jump\t// in\n    tag_199:\n        /* \"#utility.yul\":6581:6720   */\n      swap1\n      pop\n        /* \"#utility.yul\":6308:6727   */\n      swap2\n      swap1\n      pop\n      jump\t// out\n        /* \"#utility.yul\":6733:6900   */\n    tag_123:\n        /* \"#utility.yul\":6873:6892   */\n      0x536575696c206e6f6e2061747465696e74000000000000000000000000000000\n        /* \"#utility.yul\":6869:6870   */\n      0x00\n        /* \"#utility.yul\":6861:6867   */\n      dup3\n        /* \"#utility.yul\":6857:6871   */\n      add\n        /* \"#utility.yul\":6850:6893   */\n      mstore\n        /* \"#utility.yul\":6733:6900   */\n      pop\n      jump\t// out\n        /* \"#utility.yul\":6906:7272   */\n    tag_124:\n        /* \"#utility.yul\":7048:7051   */\n      0x00\n        /* \"#utility.yul\":7069:7136   */\n      tag_202\n        /* \"#utility.yul\":7133:7135   */\n      0x11\n        /* \"#utility.yul\":7128:7131   */\n      dup4\n        /* \"#utility.yul\":7069:7136   */\n      tag_116\n      jump\t// in\n    tag_202:\n        /* \"#utility.yul\":7062:7136   */\n      swap2\n      pop\n        /* \"#utility.yul\":7145:7238   */\n      tag_203\n        /* \"#utility.yul\":7234:7237   */\n      dup3\n        /* \"#utility.yul\":7145:7238   */\n      tag_123\n      jump\t// in\n    tag_203:\n        /* \"#utility.yul\":7263:7265   */\n      0x20\n        /* \"#utility.yul\":7258:7261   */\n      dup3\n        /* \"#utility.yul\":7254:7266   */\n      add\n        /* \"#utility.yul\":7247:7266   */\n      swap1\n      pop\n        /* \"#utility.yul\":6906:7272   */\n      swap2\n      swap1\n      pop\n      jump\t// out\n        /* \"#utility.yul\":7278:7697   */\n    tag_92:\n        /* \"#utility.yul\":7444:7448   */\n      0x00\n        /* \"#utility.yul\":7482:7484   */\n      0x20\n        /* \"#utility.yul\":7471:7480   */\n      dup3\n        /* \"#utility.yul\":7467:7485   */\n      add\n        /* \"#utility.yul\":7459:7485   */\n      swap1\n      pop\n        /* \"#utility.yul\":7531:7540   */\n      dup2\n        /* \"#utility.yul\":7525:7529   */\n      dup2\n        /* \"#utility.yul\":7521:7541   */\n      sub\n        /* \"#utility.yul\":7517:7518   */\n      0x00\n        /* \"#utility.yul\":7506:7515   */\n      dup4\n        /* \"#utility.yul\":7502:7519   */\n      add\n        /* \"#utility.yul\":7495:7542   */\n      mstore\n        /* \"#utility.yul\":7559:7690   */\n      tag_205\n        /* \"#utility.yul\":7685:7689   */\n      dup2\n        /* \"#utility.yul\":7559:7690   */\n      tag_124\n      jump\t// in\n    tag_205:\n        /* \"#utility.yul\":7551:7690   */\n      swap1\n      pop\n        /* \"#utility.yul\":7278:7697   */\n      swap2\n      swap1\n      pop\n      jump\t// out\n\n    auxdata: 0xa264697066735822122053e792e804695ade81ef3147142c102bcfd97028ebb1cd84f6fb5c6cbc0d6df764736f6c634300081a0033\n}\n",
				"bytecode": {
					"linkReferences": {},
					"object": "608060405234801561000f575f80fd5b50604051610cc4380380610cc48339818101604052810190610031919061016a565b815f819055503360015f6101000a81548173ffffffffffffffffffffffffffffffffffffffff021916908373ffffffffffffffffffffffffffffffffffffffff1602179055508060045f6101000a81548173ffffffffffffffffffffffffffffffffffffffff021916908373ffffffffffffffffffffffffffffffffffffffff1602179055506001600460146101000a81548160ff02191690831515021790555050506101a8565b5f80fd5b5f819050919050565b6100ef816100dd565b81146100f9575f80fd5b50565b5f8151905061010a816100e6565b92915050565b5f73ffffffffffffffffffffffffffffffffffffffff82169050919050565b5f61013982610110565b9050919050565b6101498161012f565b8114610153575f80fd5b50565b5f8151905061016481610140565b92915050565b5f80604083850312156101805761017f6100d9565b5b5f61018d858286016100fc565b925050602061019e85828601610156565b9150509250929050565b610b0f806101b55f395ff3fe60806040526004361061009f575f3560e01c8063be040fb011610063578063be040fb014610188578063cb22c1c51461019e578063cc6cb19a146101c8578063e9a8494214610204578063ed88c68e14610240578063ff5d80f21461024a576100ae565b806306919aef146100b8578063200d2ed2146100e257806371ca337d1461010c5780638da5cb5b14610136578063a6f9dae114610160576100ae565b366100ae576100ac610274565b005b6100b6610274565b005b3480156100c3575f80fd5b506100cc610447565b6040516100d9919061070d565b60405180910390f35b3480156100ed575f80fd5b506100f661044c565b6040516101039190610740565b60405180910390f35b348015610117575f80fd5b5061012061045f565b60405161012d9190610774565b60405180910390f35b348015610141575f80fd5b5061014a610464565b60405161015791906107cc565b60405180910390f35b34801561016b575f80fd5b5061018660048036038101906101819190610813565b610489565b005b348015610193575f80fd5b5061019c610560565b005b3480156101a9575f80fd5b506101b2610674565b6040516101bf919061070d565b60405180910390f35b3480156101d3575f80fd5b506101ee60048036038101906101e99190610813565b610680565b6040516101fb919061070d565b60405180910390f35b34801561020f575f80fd5b5061022a60048036038101906102259190610868565b610695565b60405161023791906107cc565b60405180910390f35b610248610274565b005b348015610255575f80fd5b5061025e6106d0565b60405161026b91906107cc565b60405180910390f35b600460149054906101000a900460ff166102c3576040517f08c379a00000000000000000000000000000000000000000000000000000000081526004016102ba906108ed565b60405180910390fd5b5f60035f3373ffffffffffffffffffffffffffffffffffffffff1673ffffffffffffffffffffffffffffffffffffffff1681526020019081526020015f20540361036857600233908060018154018082558091505060019003905f5260205f20015f9091909190916101000a81548173ffffffffffffffffffffffffffffffffffffffff021916908373ffffffffffffffffffffffffffffffffffffffff1602179055505b5f3490505f6064600560ff168361037f9190610938565b61038991906109a6565b90508160035f3373ffffffffffffffffffffffffffffffffffffffff1673ffffffffffffffffffffffffffffffffffffffff1681526020019081526020015f205f8282546103d791906109d6565b9250508190555060015f9054906101000a900473ffffffffffffffffffffffffffffffffffffffff1673ffffffffffffffffffffffffffffffffffffffff166108fc8290811502906040515f60405180830381858888f19350505050158015610442573d5f803e3d5ffd5b505050565b5f5481565b600460149054906101000a900460ff1681565b600581565b60015f9054906101000a900473ffffffffffffffffffffffffffffffffffffffff1681565b60015f9054906101000a900473ffffffffffffffffffffffffffffffffffffffff1673ffffffffffffffffffffffffffffffffffffffff163373ffffffffffffffffffffffffffffffffffffffff1603610522578060015f6101000a81548173ffffffffffffffffffffffffffffffffffffffff021916908373ffffffffffffffffffffffffffffffffffffffff16021790555061055d565b6040517f08c379a000000000000000000000000000000000000000000000000000000000815260040161055490610a53565b60405180910390fd5b50565b5f544710156105a4576040517f08c379a000000000000000000000000000000000000000000000000000000000815260040161059b90610abb565b60405180910390fd5b600460149054906101000a900460ff166105f3576040517f08c379a00000000000000000000000000000000000000000000000000000000081526004016105ea906108ed565b60405180910390fd5b60045f9054906101000a900473ffffffffffffffffffffffffffffffffffffffff1673ffffffffffffffffffffffffffffffffffffffff166108fc4790811502906040515f60405180830381858888f19350505050158015610657573d5f803e3d5ffd5b505f600460146101000a81548160ff021916908315150217905550565b5f600280549050905090565b6003602052805f5260405f205f915090505481565b600281815481106106a4575f80fd5b905f5260205f20015f915054906101000a900473ffffffffffffffffffffffffffffffffffffffff1681565b60045f9054906101000a900473ffffffffffffffffffffffffffffffffffffffff1681565b5f819050919050565b610707816106f5565b82525050565b5f6020820190506107205f8301846106fe565b92915050565b5f8115159050919050565b61073a81610726565b82525050565b5f6020820190506107535f830184610731565b92915050565b5f60ff82169050919050565b61076e81610759565b82525050565b5f6020820190506107875f830184610765565b92915050565b5f73ffffffffffffffffffffffffffffffffffffffff82169050919050565b5f6107b68261078d565b9050919050565b6107c6816107ac565b82525050565b5f6020820190506107df5f8301846107bd565b92915050565b5f80fd5b6107f2816107ac565b81146107fc575f80fd5b50565b5f8135905061080d816107e9565b92915050565b5f60208284031215610828576108276107e5565b5b5f610835848285016107ff565b91505092915050565b610847816106f5565b8114610851575f80fd5b50565b5f813590506108628161083e565b92915050565b5f6020828403121561087d5761087c6107e5565b5b5f61088a84828501610854565b91505092915050565b5f82825260208201905092915050565b7f4c6520636f6e74726174206e2765737420706c757320616374696600000000005f82015250565b5f6108d7601b83610893565b91506108e2826108a3565b602082019050919050565b5f6020820190508181035f830152610904816108cb565b9050919050565b7f4e487b71000000000000000000000000000000000000000000000000000000005f52601160045260245ffd5b5f610942826106f5565b915061094d836106f5565b925082820261095b816106f5565b915082820484148315176109725761097161090b565b5b5092915050565b7f4e487b71000000000000000000000000000000000000000000000000000000005f52601260045260245ffd5b5f6109b0826106f5565b91506109bb836106f5565b9250826109cb576109ca610979565b5b828204905092915050565b5f6109e0826106f5565b91506109eb836106f5565b9250828201905080821115610a0357610a0261090b565b5b92915050565b7f796f75206d75737420626520746865206f776e657200000000000000000000005f82015250565b5f610a3d601583610893565b9150610a4882610a09565b602082019050919050565b5f6020820190508181035f830152610a6a81610a31565b9050919050565b7f536575696c206e6f6e2061747465696e740000000000000000000000000000005f82015250565b5f610aa5601183610893565b9150610ab082610a71565b602082019050919050565b5f6020820190508181035f830152610ad281610a99565b905091905056fea264697066735822122053e792e804695ade81ef3147142c102bcfd97028ebb1cd84f6fb5c6cbc0d6df764736f6c634300081a0033",
					"opcodes": "PUSH1 0x80 PUSH1 0x40 MSTORE CALLVALUE DUP1 ISZERO PUSH2 0xF JUMPI PUSH0 DUP1 REVERT JUMPDEST POP PUSH1 0x40 MLOAD PUSH2 0xCC4 CODESIZE SUB DUP1 PUSH2 0xCC4 DUP4 CODECOPY DUP2 DUP2 ADD PUSH1 0x40 MSTORE DUP2 ADD SWAP1 PUSH2 0x31 SWAP2 SWAP1 PUSH2 0x16A JUMP JUMPDEST DUP2 PUSH0 DUP2 SWAP1 SSTORE POP CALLER PUSH1 0x1 PUSH0 PUSH2 0x100 EXP DUP2 SLOAD DUP2 PUSH20 0xFFFFFFFFFFFFFFFFFFFFFFFFFFFFFFFFFFFFFFFF MUL NOT AND SWAP1 DUP4 PUSH20 0xFFFFFFFFFFFFFFFFFFFFFFFFFFFFFFFFFFFFFFFF AND MUL OR SWAP1 SSTORE POP DUP1 PUSH1 0x4 PUSH0 PUSH2 0x100 EXP DUP2 SLOAD DUP2 PUSH20 0xFFFFFFFFFFFFFFFFFFFFFFFFFFFFFFFFFFFFFFFF MUL NOT AND SWAP1 DUP4 PUSH20 0xFFFFFFFFFFFFFFFFFFFFFFFFFFFFFFFFFFFFFFFF AND MUL OR SWAP1 SSTORE POP PUSH1 0x1 PUSH1 0x4 PUSH1 0x14 PUSH2 0x100 EXP DUP2 SLOAD DUP2 PUSH1 0xFF MUL NOT AND SWAP1 DUP4 ISZERO ISZERO MUL OR SWAP1 SSTORE POP POP POP PUSH2 0x1A8 JUMP JUMPDEST PUSH0 DUP1 REVERT JUMPDEST PUSH0 DUP2 SWAP1 POP SWAP2 SWAP1 POP JUMP JUMPDEST PUSH2 0xEF DUP2 PUSH2 0xDD JUMP JUMPDEST DUP2 EQ PUSH2 0xF9 JUMPI PUSH0 DUP1 REVERT JUMPDEST POP JUMP JUMPDEST PUSH0 DUP2 MLOAD SWAP1 POP PUSH2 0x10A DUP2 PUSH2 0xE6 JUMP JUMPDEST SWAP3 SWAP2 POP POP JUMP JUMPDEST PUSH0 PUSH20 0xFFFFFFFFFFFFFFFFFFFFFFFFFFFFFFFFFFFFFFFF DUP3 AND SWAP1 POP SWAP2 SWAP1 POP JUMP JUMPDEST PUSH0 PUSH2 0x139 DUP3 PUSH2 0x110 JUMP JUMPDEST SWAP1 POP SWAP2 SWAP1 POP JUMP JUMPDEST PUSH2 0x149 DUP2 PUSH2 0x12F JUMP JUMPDEST DUP2 EQ PUSH2 0x153 JUMPI PUSH0 DUP1 REVERT JUMPDEST POP JUMP JUMPDEST PUSH0 DUP2 MLOAD SWAP1 POP PUSH2 0x164 DUP2 PUSH2 0x140 JUMP JUMPDEST SWAP3 SWAP2 POP POP JUMP JUMPDEST PUSH0 DUP1 PUSH1 0x40 DUP4 DUP6 SUB SLT ISZERO PUSH2 0x180 JUMPI PUSH2 0x17F PUSH2 0xD9 JUMP JUMPDEST JUMPDEST PUSH0 PUSH2 0x18D DUP6 DUP3 DUP7 ADD PUSH2 0xFC JUMP JUMPDEST SWAP3 POP POP PUSH1 0x20 PUSH2 0x19E DUP6 DUP3 DUP7 ADD PUSH2 0x156 JUMP JUMPDEST SWAP2 POP POP SWAP3 POP SWAP3 SWAP1 POP JUMP JUMPDEST PUSH2 0xB0F DUP1 PUSH2 0x1B5 PUSH0 CODECOPY PUSH0 RETURN INVALID PUSH1 0x80 PUSH1 0x40 MSTORE PUSH1 0x4 CALLDATASIZE LT PUSH2 0x9F JUMPI PUSH0 CALLDATALOAD PUSH1 0xE0 SHR DUP1 PUSH4 0xBE040FB0 GT PUSH2 0x63 JUMPI DUP1 PUSH4 0xBE040FB0 EQ PUSH2 0x188 JUMPI DUP1 PUSH4 0xCB22C1C5 EQ PUSH2 0x19E JUMPI DUP1 PUSH4 0xCC6CB19A EQ PUSH2 0x1C8 JUMPI DUP1 PUSH4 0xE9A84942 EQ PUSH2 0x204 JUMPI DUP1 PUSH4 0xED88C68E EQ PUSH2 0x240 JUMPI DUP1 PUSH4 0xFF5D80F2 EQ PUSH2 0x24A JUMPI PUSH2 0xAE JUMP JUMPDEST DUP1 PUSH4 0x6919AEF EQ PUSH2 0xB8 JUMPI DUP1 PUSH4 0x200D2ED2 EQ PUSH2 0xE2 JUMPI DUP1 PUSH4 0x71CA337D EQ PUSH2 0x10C JUMPI DUP1 PUSH4 0x8DA5CB5B EQ PUSH2 0x136 JUMPI DUP1 PUSH4 0xA6F9DAE1 EQ PUSH2 0x160 JUMPI PUSH2 0xAE JUMP JUMPDEST CALLDATASIZE PUSH2 0xAE JUMPI PUSH2 0xAC PUSH2 0x274 JUMP JUMPDEST STOP JUMPDEST PUSH2 0xB6 PUSH2 0x274 JUMP JUMPDEST STOP JUMPDEST CALLVALUE DUP1 ISZERO PUSH2 0xC3 JUMPI PUSH0 DUP1 REVERT JUMPDEST POP PUSH2 0xCC PUSH2 0x447 JUMP JUMPDEST PUSH1 0x40 MLOAD PUSH2 0xD9 SWAP2 SWAP1 PUSH2 0x70D JUMP JUMPDEST PUSH1 0x40 MLOAD DUP1 SWAP2 SUB SWAP1 RETURN JUMPDEST CALLVALUE DUP1 ISZERO PUSH2 0xED JUMPI PUSH0 DUP1 REVERT JUMPDEST POP PUSH2 0xF6 PUSH2 0x44C JUMP JUMPDEST PUSH1 0x40 MLOAD PUSH2 0x103 SWAP2 SWAP1 PUSH2 0x740 JUMP JUMPDEST PUSH1 0x40 MLOAD DUP1 SWAP2 SUB SWAP1 RETURN JUMPDEST CALLVALUE DUP1 ISZERO PUSH2 0x117 JUMPI PUSH0 DUP1 REVERT JUMPDEST POP PUSH2 0x120 PUSH2 0x45F JUMP JUMPDEST PUSH1 0x40 MLOAD PUSH2 0x12D SWAP2 SWAP1 PUSH2 0x774 JUMP JUMPDEST PUSH1 0x40 MLOAD DUP1 SWAP2 SUB SWAP1 RETURN JUMPDEST CALLVALUE DUP1 ISZERO PUSH2 0x141 JUMPI PUSH0 DUP1 REVERT JUMPDEST POP PUSH2 0x14A PUSH2 0x464 JUMP JUMPDEST PUSH1 0x40 MLOAD PUSH2 0x157 SWAP2 SWAP1 PUSH2 0x7CC JUMP JUMPDEST PUSH1 0x40 MLOAD DUP1 SWAP2 SUB SWAP1 RETURN JUMPDEST CALLVALUE DUP1 ISZERO PUSH2 0x16B JUMPI PUSH0 DUP1 REVERT JUMPDEST POP PUSH2 0x186 PUSH1 0x4 DUP1 CALLDATASIZE SUB DUP2 ADD SWAP1 PUSH2 0x181 SWAP2 SWAP1 PUSH2 0x813 JUMP JUMPDEST PUSH2 0x489 JUMP JUMPDEST STOP JUMPDEST CALLVALUE DUP1 ISZERO PUSH2 0x193 JUMPI PUSH0 DUP1 REVERT JUMPDEST POP PUSH2 0x19C PUSH2 0x560 JUMP JUMPDEST STOP JUMPDEST CALLVALUE DUP1 ISZERO PUSH2 0x1A9 JUMPI PUSH0 DUP1 REVERT JUMPDEST POP PUSH2 0x1B2 PUSH2 0x674 JUMP JUMPDEST PUSH1 0x40 MLOAD PUSH2 0x1BF SWAP2 SWAP1 PUSH2 0x70D JUMP JUMPDEST PUSH1 0x40 MLOAD DUP1 SWAP2 SUB SWAP1 RETURN JUMPDEST CALLVALUE DUP1 ISZERO PUSH2 0x1D3 JUMPI PUSH0 DUP1 REVERT JUMPDEST POP PUSH2 0x1EE PUSH1 0x4 DUP1 CALLDATASIZE SUB DUP2 ADD SWAP1 PUSH2 0x1E9 SWAP2 SWAP1 PUSH2 0x813 JUMP JUMPDEST PUSH2 0x680 JUMP JUMPDEST PUSH1 0x40 MLOAD PUSH2 0x1FB SWAP2 SWAP1 PUSH2 0x70D JUMP JUMPDEST PUSH1 0x40 MLOAD DUP1 SWAP2 SUB SWAP1 RETURN JUMPDEST CALLVALUE DUP1 ISZERO PUSH2 0x20F JUMPI PUSH0 DUP1 REVERT JUMPDEST POP PUSH2 0x22A PUSH1 0x4 DUP1 CALLDATASIZE SUB DUP2 ADD SWAP1 PUSH2 0x225 SWAP2 SWAP1 PUSH2 0x868 JUMP JUMPDEST PUSH2 0x695 JUMP JUMPDEST PUSH1 0x40 MLOAD PUSH2 0x237 SWAP2 SWAP1 PUSH2 0x7CC JUMP JUMPDEST PUSH1 0x40 MLOAD DUP1 SWAP2 SUB SWAP1 RETURN JUMPDEST PUSH2 0x248 PUSH2 0x274 JUMP JUMPDEST STOP JUMPDEST CALLVALUE DUP1 ISZERO PUSH2 0x255 JUMPI PUSH0 DUP1 REVERT JUMPDEST POP PUSH2 0x25E PUSH2 0x6D0 JUMP JUMPDEST PUSH1 0x40 MLOAD PUSH2 0x26B SWAP2 SWAP1 PUSH2 0x7CC JUMP JUMPDEST PUSH1 0x40 MLOAD DUP1 SWAP2 SUB SWAP1 RETURN JUMPDEST PUSH1 0x4 PUSH1 0x14 SWAP1 SLOAD SWAP1 PUSH2 0x100 EXP SWAP1 DIV PUSH1 0xFF AND PUSH2 0x2C3 JUMPI PUSH1 0x40 MLOAD PUSH32 0x8C379A000000000000000000000000000000000000000000000000000000000 DUP2 MSTORE PUSH1 0x4 ADD PUSH2 0x2BA SWAP1 PUSH2 0x8ED JUMP JUMPDEST PUSH1 0x40 MLOAD DUP1 SWAP2 SUB SWAP1 REVERT JUMPDEST PUSH0 PUSH1 0x3 PUSH0 CALLER PUSH20 0xFFFFFFFFFFFFFFFFFFFFFFFFFFFFFFFFFFFFFFFF AND PUSH20 0xFFFFFFFFFFFFFFFFFFFFFFFFFFFFFFFFFFFFFFFF AND DUP2 MSTORE PUSH1 0x20 ADD SWAP1 DUP2 MSTORE PUSH1 0x20 ADD PUSH0 KECCAK256 SLOAD SUB PUSH2 0x368 JUMPI PUSH1 0x2 CALLER SWAP1 DUP1 PUSH1 0x1 DUP2 SLOAD ADD DUP1 DUP3 SSTORE DUP1 SWAP2 POP POP PUSH1 0x1 SWAP1 SUB SWAP1 PUSH0 MSTORE PUSH1 0x20 PUSH0 KECCAK256 ADD PUSH0 SWAP1 SWAP2 SWAP1 SWAP2 SWAP1 SWAP2 PUSH2 0x100 EXP DUP2 SLOAD DUP2 PUSH20 0xFFFFFFFFFFFFFFFFFFFFFFFFFFFFFFFFFFFFFFFF MUL NOT AND SWAP1 DUP4 PUSH20 0xFFFFFFFFFFFFFFFFFFFFFFFFFFFFFFFFFFFFFFFF AND MUL OR SWAP1 SSTORE POP JUMPDEST PUSH0 CALLVALUE SWAP1 POP PUSH0 PUSH1 0x64 PUSH1 0x5 PUSH1 0xFF AND DUP4 PUSH2 0x37F SWAP2 SWAP1 PUSH2 0x938 JUMP JUMPDEST PUSH2 0x389 SWAP2 SWAP1 PUSH2 0x9A6 JUMP JUMPDEST SWAP1 POP DUP2 PUSH1 0x3 PUSH0 CALLER PUSH20 0xFFFFFFFFFFFFFFFFFFFFFFFFFFFFFFFFFFFFFFFF AND PUSH20 0xFFFFFFFFFFFFFFFFFFFFFFFFFFFFFFFFFFFFFFFF AND DUP2 MSTORE PUSH1 0x20 ADD SWAP1 DUP2 MSTORE PUSH1 0x20 ADD PUSH0 KECCAK256 PUSH0 DUP3 DUP3 SLOAD PUSH2 0x3D7 SWAP2 SWAP1 PUSH2 0x9D6 JUMP JUMPDEST SWAP3 POP POP DUP2 SWAP1 SSTORE POP PUSH1 0x1 PUSH0 SWAP1 SLOAD SWAP1 PUSH2 0x100 EXP SWAP1 DIV PUSH20 0xFFFFFFFFFFFFFFFFFFFFFFFFFFFFFFFFFFFFFFFF AND PUSH20 0xFFFFFFFFFFFFFFFFFFFFFFFFFFFFFFFFFFFFFFFF AND PUSH2 0x8FC DUP3 SWAP1 DUP2 ISZERO MUL SWAP1 PUSH1 0x40 MLOAD PUSH0 PUSH1 0x40 MLOAD DUP1 DUP4 SUB DUP2 DUP6 DUP9 DUP9 CALL SWAP4 POP POP POP POP ISZERO DUP1 ISZERO PUSH2 0x442 JUMPI RETURNDATASIZE PUSH0 DUP1 RETURNDATACOPY RETURNDATASIZE PUSH0 REVERT JUMPDEST POP POP POP JUMP JUMPDEST PUSH0 SLOAD DUP2 JUMP JUMPDEST PUSH1 0x4 PUSH1 0x14 SWAP1 SLOAD SWAP1 PUSH2 0x100 EXP SWAP1 DIV PUSH1 0xFF AND DUP2 JUMP JUMPDEST PUSH1 0x5 DUP2 JUMP JUMPDEST PUSH1 0x1 PUSH0 SWAP1 SLOAD SWAP1 PUSH2 0x100 EXP SWAP1 DIV PUSH20 0xFFFFFFFFFFFFFFFFFFFFFFFFFFFFFFFFFFFFFFFF AND DUP2 JUMP JUMPDEST PUSH1 0x1 PUSH0 SWAP1 SLOAD SWAP1 PUSH2 0x100 EXP SWAP1 DIV PUSH20 0xFFFFFFFFFFFFFFFFFFFFFFFFFFFFFFFFFFFFFFFF AND PUSH20 0xFFFFFFFFFFFFFFFFFFFFFFFFFFFFFFFFFFFFFFFF AND CALLER PUSH20 0xFFFFFFFFFFFFFFFFFFFFFFFFFFFFFFFFFFFFFFFF AND SUB PUSH2 0x522 JUMPI DUP1 PUSH1 0x1 PUSH0 PUSH2 0x100 EXP DUP2 SLOAD DUP2 PUSH20 0xFFFFFFFFFFFFFFFFFFFFFFFFFFFFFFFFFFFFFFFF MUL NOT AND SWAP1 DUP4 PUSH20 0xFFFFFFFFFFFFFFFFFFFFFFFFFFFFFFFFFFFFFFFF AND MUL OR SWAP1 SSTORE POP PUSH2 0x55D JUMP JUMPDEST PUSH1 0x40 MLOAD PUSH32 0x8C379A000000000000000000000000000000000000000000000000000000000 DUP2 MSTORE PUSH1 0x4 ADD PUSH2 0x554 SWAP1 PUSH2 0xA53 JUMP JUMPDEST PUSH1 0x40 MLOAD DUP1 SWAP2 SUB SWAP1 REVERT JUMPDEST POP JUMP JUMPDEST PUSH0 SLOAD SELFBALANCE LT ISZERO PUSH2 0x5A4 JUMPI PUSH1 0x40 MLOAD PUSH32 0x8C379A000000000000000000000000000000000000000000000000000000000 DUP2 MSTORE PUSH1 0x4 ADD PUSH2 0x59B SWAP1 PUSH2 0xABB JUMP JUMPDEST PUSH1 0x40 MLOAD DUP1 SWAP2 SUB SWAP1 REVERT JUMPDEST PUSH1 0x4 PUSH1 0x14 SWAP1 SLOAD SWAP1 PUSH2 0x100 EXP SWAP1 DIV PUSH1 0xFF AND PUSH2 0x5F3 JUMPI PUSH1 0x40 MLOAD PUSH32 0x8C379A000000000000000000000000000000000000000000000000000000000 DUP2 MSTORE PUSH1 0x4 ADD PUSH2 0x5EA SWAP1 PUSH2 0x8ED JUMP JUMPDEST PUSH1 0x40 MLOAD DUP1 SWAP2 SUB SWAP1 REVERT JUMPDEST PUSH1 0x4 PUSH0 SWAP1 SLOAD SWAP1 PUSH2 0x100 EXP SWAP1 DIV PUSH20 0xFFFFFFFFFFFFFFFFFFFFFFFFFFFFFFFFFFFFFFFF AND PUSH20 0xFFFFFFFFFFFFFFFFFFFFFFFFFFFFFFFFFFFFFFFF AND PUSH2 0x8FC SELFBALANCE SWAP1 DUP2 ISZERO MUL SWAP1 PUSH1 0x40 MLOAD PUSH0 PUSH1 0x40 MLOAD DUP1 DUP4 SUB DUP2 DUP6 DUP9 DUP9 CALL SWAP4 POP POP POP POP ISZERO DUP1 ISZERO PUSH2 0x657 JUMPI RETURNDATASIZE PUSH0 DUP1 RETURNDATACOPY RETURNDATASIZE PUSH0 REVERT JUMPDEST POP PUSH0 PUSH1 0x4 PUSH1 0x14 PUSH2 0x100 EXP DUP2 SLOAD DUP2 PUSH1 0xFF MUL NOT AND SWAP1 DUP4 ISZERO ISZERO MUL OR SWAP1 SSTORE POP JUMP JUMPDEST PUSH0 PUSH1 0x2 DUP1 SLOAD SWAP1 POP SWAP1 POP SWAP1 JUMP JUMPDEST PUSH1 0x3 PUSH1 0x20 MSTORE DUP1 PUSH0 MSTORE PUSH1 0x40 PUSH0 KECCAK256 PUSH0 SWAP2 POP SWAP1 POP SLOAD DUP2 JUMP JUMPDEST PUSH1 0x2 DUP2 DUP2 SLOAD DUP2 LT PUSH2 0x6A4 JUMPI PUSH0 DUP1 REVERT JUMPDEST SWAP1 PUSH0 MSTORE PUSH1 0x20 PUSH0 KECCAK256 ADD PUSH0 SWAP2 POP SLOAD SWAP1 PUSH2 0x100 EXP SWAP1 DIV PUSH20 0xFFFFFFFFFFFFFFFFFFFFFFFFFFFFFFFFFFFFFFFF AND DUP2 JUMP JUMPDEST PUSH1 0x4 PUSH0 SWAP1 SLOAD SWAP1 PUSH2 0x100 EXP SWAP1 DIV PUSH20 0xFFFFFFFFFFFFFFFFFFFFFFFFFFFFFFFFFFFFFFFF AND DUP2 JUMP JUMPDEST PUSH0 DUP2 SWAP1 POP SWAP2 SWAP1 POP JUMP JUMPDEST PUSH2 0x707 DUP2 PUSH2 0x6F5 JUMP JUMPDEST DUP3 MSTORE POP POP JUMP JUMPDEST PUSH0 PUSH1 0x20 DUP3 ADD SWAP1 POP PUSH2 0x720 PUSH0 DUP4 ADD DUP5 PUSH2 0x6FE JUMP JUMPDEST SWAP3 SWAP2 POP POP JUMP JUMPDEST PUSH0 DUP2 ISZERO ISZERO SWAP1 POP SWAP2 SWAP1 POP JUMP JUMPDEST PUSH2 0x73A DUP2 PUSH2 0x726 JUMP JUMPDEST DUP3 MSTORE POP POP JUMP JUMPDEST PUSH0 PUSH1 0x20 DUP3 ADD SWAP1 POP PUSH2 0x753 PUSH0 DUP4 ADD DUP5 PUSH2 0x731 JUMP JUMPDEST SWAP3 SWAP2 POP POP JUMP JUMPDEST PUSH0 PUSH1 0xFF DUP3 AND SWAP1 POP SWAP2 SWAP1 POP JUMP JUMPDEST PUSH2 0x76E DUP2 PUSH2 0x759 JUMP JUMPDEST DUP3 MSTORE POP POP JUMP JUMPDEST PUSH0 PUSH1 0x20 DUP3 ADD SWAP1 POP PUSH2 0x787 PUSH0 DUP4 ADD DUP5 PUSH2 0x765 JUMP JUMPDEST SWAP3 SWAP2 POP POP JUMP JUMPDEST PUSH0 PUSH20 0xFFFFFFFFFFFFFFFFFFFFFFFFFFFFFFFFFFFFFFFF DUP3 AND SWAP1 POP SWAP2 SWAP1 POP JUMP JUMPDEST PUSH0 PUSH2 0x7B6 DUP3 PUSH2 0x78D JUMP JUMPDEST SWAP1 POP SWAP2 SWAP1 POP JUMP JUMPDEST PUSH2 0x7C6 DUP2 PUSH2 0x7AC JUMP JUMPDEST DUP3 MSTORE POP POP JUMP JUMPDEST PUSH0 PUSH1 0x20 DUP3 ADD SWAP1 POP PUSH2 0x7DF PUSH0 DUP4 ADD DUP5 PUSH2 0x7BD JUMP JUMPDEST SWAP3 SWAP2 POP POP JUMP JUMPDEST PUSH0 DUP1 REVERT JUMPDEST PUSH2 0x7F2 DUP2 PUSH2 0x7AC JUMP JUMPDEST DUP2 EQ PUSH2 0x7FC JUMPI PUSH0 DUP1 REVERT JUMPDEST POP JUMP JUMPDEST PUSH0 DUP2 CALLDATALOAD SWAP1 POP PUSH2 0x80D DUP2 PUSH2 0x7E9 JUMP JUMPDEST SWAP3 SWAP2 POP POP JUMP JUMPDEST PUSH0 PUSH1 0x20 DUP3 DUP5 SUB SLT ISZERO PUSH2 0x828 JUMPI PUSH2 0x827 PUSH2 0x7E5 JUMP JUMPDEST JUMPDEST PUSH0 PUSH2 0x835 DUP5 DUP3 DUP6 ADD PUSH2 0x7FF JUMP JUMPDEST SWAP2 POP POP SWAP3 SWAP2 POP POP JUMP JUMPDEST PUSH2 0x847 DUP2 PUSH2 0x6F5 JUMP JUMPDEST DUP2 EQ PUSH2 0x851 JUMPI PUSH0 DUP1 REVERT JUMPDEST POP JUMP JUMPDEST PUSH0 DUP2 CALLDATALOAD SWAP1 POP PUSH2 0x862 DUP2 PUSH2 0x83E JUMP JUMPDEST SWAP3 SWAP2 POP POP JUMP JUMPDEST PUSH0 PUSH1 0x20 DUP3 DUP5 SUB SLT ISZERO PUSH2 0x87D JUMPI PUSH2 0x87C PUSH2 0x7E5 JUMP JUMPDEST JUMPDEST PUSH0 PUSH2 0x88A DUP5 DUP3 DUP6 ADD PUSH2 0x854 JUMP JUMPDEST SWAP2 POP POP SWAP3 SWAP2 POP POP JUMP JUMPDEST PUSH0 DUP3 DUP3 MSTORE PUSH1 0x20 DUP3 ADD SWAP1 POP SWAP3 SWAP2 POP POP JUMP JUMPDEST PUSH32 0x4C6520636F6E74726174206E2765737420706C75732061637469660000000000 PUSH0 DUP3 ADD MSTORE POP JUMP JUMPDEST PUSH0 PUSH2 0x8D7 PUSH1 0x1B DUP4 PUSH2 0x893 JUMP JUMPDEST SWAP2 POP PUSH2 0x8E2 DUP3 PUSH2 0x8A3 JUMP JUMPDEST PUSH1 0x20 DUP3 ADD SWAP1 POP SWAP2 SWAP1 POP JUMP JUMPDEST PUSH0 PUSH1 0x20 DUP3 ADD SWAP1 POP DUP2 DUP2 SUB PUSH0 DUP4 ADD MSTORE PUSH2 0x904 DUP2 PUSH2 0x8CB JUMP JUMPDEST SWAP1 POP SWAP2 SWAP1 POP JUMP JUMPDEST PUSH32 0x4E487B7100000000000000000000000000000000000000000000000000000000 PUSH0 MSTORE PUSH1 0x11 PUSH1 0x4 MSTORE PUSH1 0x24 PUSH0 REVERT JUMPDEST PUSH0 PUSH2 0x942 DUP3 PUSH2 0x6F5 JUMP JUMPDEST SWAP2 POP PUSH2 0x94D DUP4 PUSH2 0x6F5 JUMP JUMPDEST SWAP3 POP DUP3 DUP3 MUL PUSH2 0x95B DUP2 PUSH2 0x6F5 JUMP JUMPDEST SWAP2 POP DUP3 DUP3 DIV DUP5 EQ DUP4 ISZERO OR PUSH2 0x972 JUMPI PUSH2 0x971 PUSH2 0x90B JUMP JUMPDEST JUMPDEST POP SWAP3 SWAP2 POP POP JUMP JUMPDEST PUSH32 0x4E487B7100000000000000000000000000000000000000000000000000000000 PUSH0 MSTORE PUSH1 0x12 PUSH1 0x4 MSTORE PUSH1 0x24 PUSH0 REVERT JUMPDEST PUSH0 PUSH2 0x9B0 DUP3 PUSH2 0x6F5 JUMP JUMPDEST SWAP2 POP PUSH2 0x9BB DUP4 PUSH2 0x6F5 JUMP JUMPDEST SWAP3 POP DUP3 PUSH2 0x9CB JUMPI PUSH2 0x9CA PUSH2 0x979 JUMP JUMPDEST JUMPDEST DUP3 DUP3 DIV SWAP1 POP SWAP3 SWAP2 POP POP JUMP JUMPDEST PUSH0 PUSH2 0x9E0 DUP3 PUSH2 0x6F5 JUMP JUMPDEST SWAP2 POP PUSH2 0x9EB DUP4 PUSH2 0x6F5 JUMP JUMPDEST SWAP3 POP DUP3 DUP3 ADD SWAP1 POP DUP1 DUP3 GT ISZERO PUSH2 0xA03 JUMPI PUSH2 0xA02 PUSH2 0x90B JUMP JUMPDEST JUMPDEST SWAP3 SWAP2 POP POP JUMP JUMPDEST PUSH32 0x796F75206D75737420626520746865206F776E65720000000000000000000000 PUSH0 DUP3 ADD MSTORE POP JUMP JUMPDEST PUSH0 PUSH2 0xA3D PUSH1 0x15 DUP4 PUSH2 0x893 JUMP JUMPDEST SWAP2 POP PUSH2 0xA48 DUP3 PUSH2 0xA09 JUMP JUMPDEST PUSH1 0x20 DUP3 ADD SWAP1 POP SWAP2 SWAP1 POP JUMP JUMPDEST PUSH0 PUSH1 0x20 DUP3 ADD SWAP1 POP DUP2 DUP2 SUB PUSH0 DUP4 ADD MSTORE PUSH2 0xA6A DUP2 PUSH2 0xA31 JUMP JUMPDEST SWAP1 POP SWAP2 SWAP1 POP JUMP JUMPDEST PUSH32 0x536575696C206E6F6E2061747465696E74000000000000000000000000000000 PUSH0 DUP3 ADD MSTORE POP JUMP JUMPDEST PUSH0 PUSH2 0xAA5 PUSH1 0x11 DUP4 PUSH2 0x893 JUMP JUMPDEST SWAP2 POP PUSH2 0xAB0 DUP3 PUSH2 0xA71 JUMP JUMPDEST PUSH1 0x20 DUP3 ADD SWAP1 POP SWAP2 SWAP1 POP JUMP JUMPDEST PUSH0 PUSH1 0x20 DUP3 ADD SWAP1 POP DUP2 DUP2 SUB PUSH0 DUP4 ADD MSTORE PUSH2 0xAD2 DUP2 PUSH2 0xA99 JUMP JUMPDEST SWAP1 POP SWAP2 SWAP1 POP JUMP INVALID LOG2 PUSH5 0x6970667358 0x22 SLT KECCAK256 MSTORE8 0xE7 SWAP3 0xE8 DIV PUSH10 0x5ADE81EF3147142C102B 0xCF 0xD9 PUSH17 0x28EBB1CD84F6FB5C6CBC0D6DF764736F6C PUSH4 0x4300081A STOP CALLER "
				},
				"gasEstimates": {
					"creation": {
						"codeDepositCost": "566200",
						"executionCost": "infinite",
						"totalCost": "infinite"
					},
					"external": {
						"": "infinite",
						"changeOwner(address)": "26984",
						"donate()": "infinite",
						"donaters(uint256)": "5010",
						"donations(address)": "2846",
						"nbr_donations()": "2462",
						"owner()": "2575",
						"ratio()": "376",
						"receipient()": "2618",
						"redeem()": "infinite",
						"seuil()": "2425",
						"status()": "2540"
					}
				},
				"methodIdentifiers": {
					"changeOwner(address)": "a6f9dae1",
					"donate()": "ed88c68e",
					"donaters(uint256)": "e9a84942",
					"donations(address)": "cc6cb19a",
					"nbr_donations()": "cb22c1c5",
					"owner()": "8da5cb5b",
					"ratio()": "71ca337d",
					"receipient()": "ff5d80f2",
					"redeem()": "be040fb0",
					"seuil()": "06919aef",
					"status()": "200d2ed2"
				}
			},
			"storageLayout": {
				"storage": [
					{
						"astId": 4,
						"contract": "contracts/Funding (1).sol:Funding",
						"label": "seuil",
						"offset": 0,
						"slot": "0",
						"type": "t_uint256"
					},
					{
						"astId": 9,
						"contract": "contracts/Funding (1).sol:Funding",
						"label": "owner",
						"offset": 0,
						"slot": "1",
						"type": "t_address"
					},
					{
						"astId": 12,
						"contract": "contracts/Funding (1).sol:Funding",
						"label": "donaters",
						"offset": 0,
						"slot": "2",
						"type": "t_array(t_address)dyn_storage"
					},
					{
						"astId": 16,
						"contract": "contracts/Funding (1).sol:Funding",
						"label": "donations",
						"offset": 0,
						"slot": "3",
						"type": "t_mapping(t_address,t_uint256)"
					},
					{
						"astId": 18,
						"contract": "contracts/Funding (1).sol:Funding",
						"label": "receipient",
						"offset": 0,
						"slot": "4",
						"type": "t_address"
					},
					{
						"astId": 20,
						"contract": "contracts/Funding (1).sol:Funding",
						"label": "status",
						"offset": 20,
						"slot": "4",
						"type": "t_bool"
					}
				],
				"types": {
					"t_address": {
						"encoding": "inplace",
						"label": "address",
						"numberOfBytes": "20"
					},
					"t_array(t_address)dyn_storage": {
						"base": "t_address",
						"encoding": "dynamic_array",
						"label": "address[]",
						"numberOfBytes": "32"
					},
					"t_bool": {
						"encoding": "inplace",
						"label": "bool",
						"numberOfBytes": "1"
					},
					"t_mapping(t_address,t_uint256)": {
						"encoding": "mapping",
						"key": "t_address",
						"label": "mapping(address => uint256)",
						"numberOfBytes": "32",
						"value": "t_uint256"
					},
					"t_uint256": {
						"encoding": "inplace",
						"label": "uint256",
						"numberOfBytes": "32"
					}
				}
			},
			"userdoc": {
				"kind": "user",
				"methods": {},
				"version": 1
			}
		}
	}
}